:020000040000FA
:100000000C94DD010C9405020C9405020C9405027D
:100010000C9405020C9405020C9405020C94050244
:100020000C9405020C9405020C9405020C94050234
:100030000C9405020C9405020C9405020C94050224
:100040000C9447040C9405020C9415040C94EF03D3
:100050000C9405020C9405020C9405020C94050204
:100060000C9405020C940502000000080002010037
:100070000003040700000000000000000000000072
:100080000000000018181818180018006C6C6C009C
:100090000000000036367F367F3636000C3F683E63
:1000A0000B7E180060660C1830660600386C6C38E1
:1000B0006D663B000C183000000000000C1830305A
:1000C00030180C0030180C0C0C18300000187E3C56
:1000D0007E1800000018187E1818000000000000AC
:1000E000001818300000007E000000000000000032
:1000F0000018180000060C18306000003C666E7E88
:1001000076663C001838181818187E003C66060CF5
:1001100018307E003C66061C06663C000C1C3C6CDD
:100120007E0C0C007E607C0606663C001C30607C09
:1001300066663C007E060C18303030003C66663C3B
:1001400066663C003C66663E060C380000001818E7
:100150000018180000001818001818300C1830602B
:1001600030180C0000007E007E00000030180C06E5
:100170000C1830003C660C18180018003C666E6ABB
:100180006E603C003C66667E666666007C66667CE9
:1001900066667C003C66606060663C00786C666603
:1001A000666C78007E60607C60607E007E60607C53
:1001B000606060003C66606E66663C006666667EF7
:1001C000666666007E18181818187E003E0C0C0C27
:1001D0000C6C3800666C7870786C660060606060EB
:1001E00060607E0063777F6B6B6363006666767E1C
:1001F0006E6666003C66666666663C007C66667C8B
:10020000606060003C6666666A6C36007C66667C90
:100210006C6666003C66603C06663C007E181818FA
:10022000181818006666666666663C00666666664E
:10023000663C180063636B6B7F77630066663C18EF
:100240003C6666006666663C181818007E060C1848
:1002500030607E007C60606060607C000060301810
:100260000C0600003E06060606063E00183C6642E6
:100270000000000000000000000000FF1C36307C81
:1002800030307E0000003C063E663E0060607C66CA
:1002900066667C0000003C6660663C0006063E66C2
:1002A00066663E0000003C667E603C001C30307C90
:1002B0003030300000003E66663E063C60607C6682
:1002C000666666001800381818183C0018003818C0
:1002D000181818706060666C786C6600381818180A
:1002E00018183C000000367F6B6B630000007C66D2
:1002F0006666660000003C6666663C0000007C6640
:10030000667C606000003E66663E060700006C7614
:100310006060600000003E603C067C0030307C3055
:1003200030301C000000666666663E0000006666AF
:10033000663C18000000636B6B7F36000000663C73
:10034000183C660000006666663E063C00007E0CB7
:1003500018307E000C18187018180C0018181800A7
:10036000181818003018180E18183000316B460095
:1003700000000000FFFFFFFFFFFFFFFF0000000085
:10038000250028002B0000000000240027002A0080
:10039000040404040404040402020202020203032B
:1003A0000303030301020408102040800102040833
:1003B0001020010204081020650711241FBECFEF92
:1003C000D8E0DEBFCDBF11E0A0E0B1E0ECECF2E19F
:1003D00002C005900D92A435B107D9F721E0A4E53C
:1003E000B1E001C01D92AD3FB207E1F711E0CDEDE4
:1003F000D1E004C02197FE010E945E09CC3DD107E7
:10040000C9F70E9491040C9464090C94000090E0D8
:10041000FC01EC55FC4F249180579C4FFC018491CA
:10042000882399F090E0880F991FFC01EA57FC4F50
:10043000A591B491FC01E458FC4F859194918FB73C
:10044000F894EC91E22BEC938FBF0895AF92BF929A
:10045000CF92DF92EF92FF920F931F93CF93DF9390
:100460006C017B018B01040F151FEB015E01AE18BF
:10047000BF08C017D10759F06991D601ED91FC91E1
:100480000190F081E02DC6010995892B79F7C5010E
:10049000DF91CF911F910F91FF90EF90DF90CF9060
:1004A000BF90AF900895FC01538D448D252F30E00F
:1004B000842F90E0821B930B541710F0CF96089571
:1004C00001970895FC01918D828D981761F0A28D9E
:1004D000AE0FBF2FB11D5D968C91928D9F5F9F7364
:1004E000928F90E008958FEF9FEF0895FC01918D1A
:1004F000828D981731F0828DE80FF11D858D90E087
:1005000008958FEF9FEF0895FC01918D228D892F23
:1005100090E0805C9F4F821B91098F73992708950B
:100520008DE591E00E94840221E0892B09F420E00E
:10053000822F089580E090E0892B29F00E9490029C
:1005400081110C9400000895FC01A48DA80FB92F0F
:10055000B11DA35ABF4F2C91848D90E001968F73EB
:100560009927848FA689B7892C93A089B1898C910A
:10057000837080648C93938D848D981306C0028859
:10058000F389E02D80818F7D80830895EF92FF9223
:100590000F931F93CF93DF93EC0181E0888F9B8DA6
:1005A0008C8D98131AC0E889F989808185FF15C060
:1005B0009FB7F894EE89FF896083E889F989808183
:1005C0008370806480839FBF81E090E0DF91CF9152
:1005D0001F910F91FF90EF900895F62E0B8D10E074
:1005E0000F5F1F4F0F731127E02E8C8D8E110CC0E3
:1005F0000FB607FCFACFE889F989808185FFF5CF2E
:10060000CE010E94A402F1CFEB8DEC0FFD2FF11D66
:10061000E35AFF4FF0829FB7F8940B8FEA89FB896A
:1006200080818062CFCFCF93DF93EC01888D8823C8
:10063000B9F0AA89BB89E889F9898C9185FD03C045
:10064000808186FD0DC00FB607FCF7CF8C9185FF2A
:10065000F2CF808185FFEDCFCE010E94A402E9CFC9
:10066000DF91CF91089590E0FC01E859FF4F24916C
:10067000FC01EC55FC4F3491FC01E057FC4FE49138
:10068000EE23C9F0222339F0233001F1A8F4213000
:1006900019F1223029F1F0E0EE0FFF1FE458FC4F72
:1006A000A591B4918FB7F894EC91611126C0309563
:1006B0003E233C938FBF08952730A9F02830C9F01E
:1006C000243049F7809180008F7D03C080918000A5
:1006D0008F7780938000DFCF84B58F7784BDDBCFA9
:1006E00084B58F7DFBCF8091B0008F778093B00071
:1006F000D2CF8091B0008F7DF9CF3E2BDACF3FB7BC
:10070000F8948091590190915A01A0915B01B091A8
:100710005C0126B5A89B05C02F3F19F00196A11DCD
:10072000B11D3FBFBA2FA92F982F8827BC01CD013B
:10073000620F711D811D911D42E0660F771F881F9A
:10074000991F4A95D1F7089561E08091FC010C94BE
:1007500033038EBD00000DB407FEFDCF8EB50895A6
:10076000CF93DF93EC0160E08091FC010E943303A2
:100770008D2F0E94A9038C2FDF91CF910C94A90398
:100780001F93CF93DF93162FEA0190680E94B00366
:10079000219720F0812F0E94A903FACFDF91CF91FA
:1007A0001F910C94A403CF93DF93D62FC72F90688B
:1007B0000E94B0038D2F0E94A9038C2F0E94A903D1
:1007C000DF91CF910C94A403CF93C62F90680E9421
:1007D000B0038C2F0E94A903CF910C94A4031F9205
:1007E0000F920FB60F9211242F933F934F935F9365
:1007F0006F937F938F939F93AF93BF93EF93FF93E9
:100800008DE591E00E94A402FF91EF91BF91AF911D
:100810009F918F917F916F915F914F913F912F9118
:100820000F900FBE0F901F9018951F920F920FB64A
:100830000F9211242F938F939F93EF93FF93E09147
:100840006D01F0916E018081E0917301F09174016E
:1008500082FD1BC09081809176018F5F8F73209104
:100860007701821741F0E0917601F0E0E35AFE4F04
:10087000958F80937601FF91EF919F918F912F91AA
:100880000F900FBE0F901F9018958081F4CF1F928C
:100890000F920FB60F9211242F933F938F939F9334
:1008A000AF93BF938091550190915601A09157014C
:1008B000B09158013091540123E0230F2D3758F5A2
:1008C0000196A11DB11D2093540180935501909371
:1008D0005601A0935701B09358018091590190910E
:1008E0005A01A0915B01B0915C010196A11DB11D5F
:1008F0008093590190935A01A0935B01B0935C01DE
:10090000BF91AF919F918F913F912F910F900FBE0B
:100910000F901F90189526E8230F0296A11DB11D78
:10092000D2CFCF93DF9300D000D0CDB7DEB778948D
:1009300084B5826084BD84B5816084BD85B58260E4
:1009400085BD85B5816085BD80916E008160809395
:100950006E001092810080918100826080938100FE
:10096000809181008160809381008091800081600E
:10097000809380008091B10084608093B100809169
:10098000B00081608093B00080917A008460809391
:100990007A0080917A00826080937A0080917A0058
:1009A000816080937A0080917A00806880937A00D9
:1009B0001092C1000E947F034B015C010AEFC02E20
:1009C000D12CE12CF12C0E947F03681979098A0946
:1009D0009B09683E734081059105A8F321E0C21A86
:1009E000D108E108F10838EE830E33E0931EA11C14
:1009F000B11CC114D104E104F10429F789E080930A
:100A0000FC010E940702FFB7F983F8948091FA0174
:100A1000811124C0EAE9F3E08491EEEAF3E09491D5
:100A2000E82FF0E0EE0FFF1FEA57FC4FA591B491BD
:100A3000EC91E92321F461E08AE00E9433038AE02B
:100A40000E9407028CB580618CBD8CB580648CBD22
:100A50008DE00E9407028BE00E9407028091FA015C
:100A60008F5F8093FA0129812FBF8CB58C7F8CBD5D
:100A70008DB581608DBD8CB58F7D8CBD8CB5837F30
:100A80008CBD81E08DBD61E08091FC010E9433034B
:100A900061E089E098E20E94E40380E090EB0E942C
:100AA000B00380E092E09A83898380E90E94A903E1
:100AB00081E00E94A90380E90E94A90381E00E94CD
:100AC000A9038091FB018F5F8093FB01E981FA818B
:100AD0003197FA83E983EF2B41F70E94A40340E0AA
:100AE00058E260E090E080E00E94C00340E058E0FF
:100AF00060E080E098E30E94C00340E050E460E0E2
:100B000080E090E40E94C00340E051E060E080E0BB
:100B10009AE20E94C00340E850E060E080E498E27E
:100B20000E94C00370E060E084E098E20E94D3037A
:100B300070E060E086E098E20E94D30360E088E025
:100B400098E20E94E40360E08AE098E20E94E403F5
:100B500060E08BE098E20E94E40360E08CE098E2C1
:100B60000E94E40370E060E08EE098E20E94D3030C
:100B700070E060E080E198E20E94D30370E060E002
:100B800082E198E20E94D30370E060E08EE198E297
:100B90000E94D30360E484E198E20E94E4030CE73E
:100BA00010E0C12CB2E1DB2EF8018491A82FAF70C8
:100BB000B0E0A65EBE4FFC90E82FF0E0A4E0F59513
:100BC000E795AA95E1F7E65EFE4F6081C6010E94B7
:100BD000E4036F2DC60101960E94E4030F5F1F4FCF
:100BE000F2E0CF0ED11CC11428E1D206E9F680E074
:100BF00091E29A83898360E070E889819A810E94FA
:100C0000D3036FEF7FE789819A8106960E94D30311
:100C1000E981FA813896FA83E983E115F44259F7BC
:100C200040E050E160E290E080E00E94C003A12C2F
:100C300060E3B62E1A82198273E0C72ED12CE980A8
:100C4000FA8030EFE32288E4E80EF11C09811A8172
:100C50000F70112724E0000F111F2A95E1F70A5E9B
:100C60001F4FC50190680E94B0038E2D0E94A903FA
:100C700089819A8136E0959587953A95E1F7F60155
:100C8000E81BF90BCF01880F991F8860F0E18F02F4
:100C9000C00111248F290E94A903802F0E94A9035B
:100CA00089819A81880F991F8E779927812B0E94BD
:100CB000A9030E94A40329813A812F5F3F4F3A8301
:100CC000298334E0A30EB11C89819A81811591405A
:100CD00009F0B5CF40E050E460E080E090E40E948D
:100CE000C0036FEF73E086E898E20E94D3038FE4BD
:100CF00090E80E94B0032AE231E03A832983E98137
:100D0000FA818191FA83E983882319F00E94A9036B
:100D1000F6CF0E94A40380E199E80E94B00320E48A
:100D200031E03A832983E981FA818191FA83E98369
:100D3000882319F00E94A903F6CF0E94A40300ECB7
:100D400010E0C0900401D0900501E0900601F09001
:100D500007014090000150900101609002017090E5
:100D60000301A7019601C701B6010E9493072EEA6D
:100D700037E441EE5FE30E9492074B015C01A3015F
:100D80009201C701B6010E9493079B01AC01C50106
:100D9000B4010E94F1084B015C01A7019601C70153
:100DA000B6010E94F1082DEC3CEC4CEC5DE30E9496
:100DB000F10820E030E040E85FE30E949307698398
:100DC0007A838B839C83A3019201C301B2010E94A9
:100DD000F10820E030E040E45FE30E94F1089B016D
:100DE000AC0169817A818B819C810E9493079B0170
:100DF000AC01C501B4010E94FF0760930401709328
:100E000005018093060190930701C0920001D092E2
:100E10000101E0920201F092030120E030E044E29F
:100E200052E40E94F10820E030E044E352E40E94E2
:100E300093070E947108962EA62EB12C20E030E078
:100E400044E252E4C701B6010E94F10820E030E01C
:100E500044E352E40E9493070E947108F0E16F9FFF
:100E6000700111246894F6F8892D8F70E82A7A2D84
:100E7000662766277073E62AF72AC7010E94B00327
:100E800080E00E94A903D82E0E94A40395E0B594A7
:100E9000A7949A95E1F726E0A222BB24B80102C0EC
:100EA00075956795AA94E2F76D29C7010E94E4033E
:100EB00080E090E0892B09F444CF0E9490028823BF
:100EC00009F43FCF0E9400003CCFEDE5F1E0138232
:100ED000128288EE93E0A0E0B0E084839583A6833D
:100EE000B7838CE091E09183808385EC90E09587D7
:100EF000848784EC90E09787868780EC90E0918BE4
:100F0000808B81EC90E0938B828B82EC90E0958BD0
:100F1000848B86EC90E0978B868B118E128E138ECD
:100F2000148E08955058BB27AA270E94AA070C9434
:100F3000B7080E94A90838F00E94B00820F039F4E0
:100F40009F3F19F426F40C94A6080EF4E095E7FBF5
:100F50000C94A008E92F0E94C80858F3BA1762073A
:100F600073078407950720F079F4A6F50C94EA0836
:100F70000EF4E0950B2EBA2FA02D0B01B9019001B4
:100F80000C01CA01A0011124FF27591B99F0593FF8
:100F900050F4503E68F11A16F040A22F232F342F40
:100FA0004427585FF3CF469537952795A795F0408E
:100FB0005395C9F77EF41F16BA0B620B730B840BA3
:100FC000BAF09150A1F0FF0FBB1F661F771F881F5B
:100FD000C2F70EC0BA0F621F731F841F48F48795B3
:100FE00077956795B795F7959E3F08F0B0CF9395A5
:100FF000880F08F09927EE0F9795879508950E941E
:1010000013080C94B7080E94B00858F00E94A90871
:1010100040F029F45F3F29F00C94A00851110C9482
:10102000EB080C94A6080E94C80868F39923B1F352
:10103000552391F3951B550BBB27AA2762177307FE
:10104000840738F09F5F5F4F220F331F441FAA1F92
:10105000A9F335D00E2E3AF0E0E832D0915050404E
:10106000E695001CCAF72BD0FE2F29D0660F771FFC
:10107000881FBB1F261737074807AB07B0E809F0E2
:10108000BB0B802DBF01FF2793585F4F3AF09E3F67
:10109000510578F00C94A0080C94EB085F3FE4F342
:1010A000983ED4F3869577956795B795F7959F5FAA
:1010B000C9F7880F911D9695879597F90895E1E0F6
:1010C000660F771F881FBB1F621773078407BA0755
:1010D00020F0621B730B840BBA0BEE1F88F7E095B0
:1010E00008950E94D00888F09F5798F0B92F99274B
:1010F000B751B0F0E1F0660F771F881F991F1AF003
:10110000BA95C9F714C0B13091F00E94EA08B1E075
:1011100008950C94EA08672F782F8827B85F39F074
:10112000B93FCCF3869577956795B395D9F73EF49B
:1011300090958095709561957F4F8F4F9F4F089543
:1011400097F99F6780E870E060E008959FEF80EC7A
:10115000089500240A94161617061806090608951D
:1011600000240A9412161306140605060895092E83
:101170000394000C11F4882352F0BB0F40F4BF2BF2
:1011800011F460FF04C06F5F7F4F8F4F9F4F089532
:1011900057FD9058440F551F59F05F3F71F0479528
:1011A000880F97FB991F61F09F3F79F0879508950D
:1011B000121613061406551FF2CF4695F1DF08C02C
:1011C000161617061806991FF1CF86957105610549
:1011D00008940895E894BB2766277727CB0197F9F1
:1011E00008950E9404090C94B7080E94A90838F0D9
:1011F0000E94B00820F0952311F00C94A0080C94E4
:10120000A60811240C94EB080E94C80870F3959F5F
:10121000C1F3950F50E0551F629FF001729FBB27ED
:10122000F00DB11D639FAA27F00DB11DAA1F649F89
:101230006627B00DA11D661F829F2227B00DA11D3C
:10124000621F739FB00DA11D621F839FA00D611DC2
:10125000221F749F3327A00D611D231F849F600DE3
:10126000211D822F762F6A2F11249F5750409AF00C
:10127000F1F088234AF0EE0FFF1FBB1F661F771F98
:10128000881F91505040A9F79E3F510580F00C9463
:10129000A0080C94EB085F3FE4F3983ED4F38695E6
:1012A00077956795B795F795E7959F5FC1F7FE2B03
:1012B000880F911D9695879597F90895EE0FFF1F5A
:1012C0000590F491E02D0994F894FFCFCDCCEC3F3C
:1012D0007B14EE3F00000000C602260253021303F7
:1012E00084026202760200030C0F30333C3FC0C31D
:1012F000CCCFF0F3FCFF53756E666C6F7765722090
:101300006368616F746963206D6170004372656129
:10131000746564206279204A4C53203230323100A7
:107E0000112484B714BE81FFF0D085E080938100F7
:107E100082E08093C00088E18093C10086E0809377
:107E2000C20080E18093C4008EE0C9D0259A86E02C
:107E300020E33CEF91E0309385002093840096BBD3
:107E4000B09BFECF1D9AA8958150A9F7CC24DD24C4
:107E500088248394B5E0AB2EA1E19A2EF3E0BF2EE7
:107E6000A2D0813461F49FD0082FAFD0023811F036
:107E7000013811F484E001C083E08DD089C08234E0
:107E800011F484E103C0853419F485E0A6D080C0E4
:107E9000853579F488D0E82EFF2485D0082F10E0AE
:107EA000102F00270E291F29000F111F8ED06801E7
:107EB0006FC0863521F484E090D080E0DECF843638
:107EC00009F040C070D06FD0082F6DD080E0C81688
:107ED00080E7D80618F4F601B7BEE895C0E0D1E017
:107EE00062D089930C17E1F7F0E0CF16F0E7DF06D8
:107EF00018F0F601B7BEE89568D007B600FCFDCFD4
:107F0000A601A0E0B1E02C9130E011968C91119780
:107F100090E0982F8827822B932B1296FA010C0160
:107F200087BEE89511244E5F5F4FF1E0A038BF0790
:107F300051F7F601A7BEE89507B600FCFDCF97BE46
:107F4000E89526C08437B1F42ED02DD0F82E2BD052
:107F50003CD0F601EF2C8F010F5F1F4F84911BD097
:107F6000EA94F801C1F70894C11CD11CFA94CF0C13
:107F7000D11C0EC0853739F428D08EE10CD085E9AC
:107F80000AD08FE07ACF813511F488E018D01DD067
:107F900080E101D065CF982F8091C00085FFFCCF94
:107FA0009093C60008958091C00087FFFCCF809118
:107FB000C00084FD01C0A8958091C6000895E0E648
:107FC000F0E098E1908380830895EDDF803219F02E
:107FD00088E0F5DFFFCF84E1DECF1F93182FE3DFCA
:107FE0001150E9F7F2DF1F91089580E0E8DFEE27F6
:047FF000FF270994CA
:027FFE00040479
:00000001FF
