:020000040000FA
:100000000C94DD010C9405020C9405020C9405027D
:100010000C9405020C9405020C9405020C94050244
:100020000C9405020C9405020C9405020C94050234
:100030000C9405020C9405020C9405020C94050224
:100040000C9447040C9405020C9415040C94EF03D3
:100050000C9405020C9405020C9405020C94050204
:100060000C9405020C940502000000080002010037
:100070000003040700000000000000000000000072
:100080000000000018181818180018006C6C6C009C
:100090000000000036367F367F3636000C3F683E63
:1000A0000B7E180060660C1830660600386C6C38E1
:1000B0006D663B000C183000000000000C1830305A
:1000C00030180C0030180C0C0C18300000187E3C56
:1000D0007E1800000018187E1818000000000000AC
:1000E000001818300000007E000000000000000032
:1000F0000018180000060C18306000003C666E7E88
:1001000076663C001838181818187E003C66060CF5
:1001100018307E003C66061C06663C000C1C3C6CDD
:100120007E0C0C007E607C0606663C001C30607C09
:1001300066663C007E060C18303030003C66663C3B
:1001400066663C003C66663E060C380000001818E7
:100150000018180000001818001818300C1830602B
:1001600030180C0000007E007E00000030180C06E5
:100170000C1830003C660C18180018003C666E6ABB
:100180006E603C003C66667E666666007C66667CE9
:1001900066667C003C66606060663C00786C666603
:1001A000666C78007E60607C60607E007E60607C53
:1001B000606060003C66606E66663C006666667EF7
:1001C000666666007E18181818187E003E0C0C0C27
:1001D0000C6C3800666C7870786C660060606060EB
:1001E00060607E0063777F6B6B6363006666767E1C
:1001F0006E6666003C66666666663C007C66667C8B
:10020000606060003C6666666A6C36007C66667C90
:100210006C6666003C66603C06663C007E181818FA
:10022000181818006666666666663C00666666664E
:10023000663C180063636B6B7F77630066663C18EF
:100240003C6666006666663C181818007E060C1848
:1002500030607E007C60606060607C000060301810
:100260000C0600003E06060606063E00183C6642E6
:100270000000000000000000000000FF1C36307C81
:1002800030307E0000003C063E663E0060607C66CA
:1002900066667C0000003C6660663C0006063E66C2
:1002A00066663E0000003C667E603C001C30307C90
:1002B0003030300000003E66663E063C60607C6682
:1002C000666666001800381818183C0018003818C0
:1002D000181818706060666C786C6600381818180A
:1002E00018183C000000367F6B6B630000007C66D2
:1002F0006666660000003C6666663C0000007C6640
:10030000667C606000003E66663E060700006C7614
:100310006060600000003E603C067C0030307C3055
:1003200030301C000000666666663E0000006666AF
:10033000663C18000000636B6B7F36000000663C73
:10034000183C660000006666663E063C00007E0CB7
:1003500018307E000C18187018180C0018181800A7
:10036000181818003018180E18183000316B460095
:1003700000000000FFFFFFFFFFFFFFFF0000000085
:10038000250028002B0000000000240027002A0080
:10039000040404040404040402020202020203032B
:1003A0000303030301020408102040800102040833
:1003B0001020010204081020180711241FBECFEFDF
:1003C000D8E0DEBFCDBF11E0A0E0B1E0E2E3F2E1B2
:1003D00002C005900D92A035B107D9F721E0A0E544
:1003E000B1E001C01D92AD3FB207E1F711E0CDEDE4
:1003F000D1E004C02197FE010E941109CC3DD10734
:10040000C9F70E9491040C9417090C94000090E025
:10041000FC01EC55FC4F249180579C4FFC018491CA
:10042000882399F090E0880F991FFC01EA57FC4F50
:10043000A591B491FC01E458FC4F859194918FB73C
:10044000F894EC91E22BEC938FBF0895AF92BF929A
:10045000CF92DF92EF92FF920F931F93CF93DF9390
:100460006C017B018B01040F151FEB015E01AE18BF
:10047000BF08C017D10759F06991D601ED91FC91E1
:100480000190F081E02DC6010995892B79F7C5010E
:10049000DF91CF911F910F91FF90EF90DF90CF9060
:1004A000BF90AF900895FC01538D448D252F30E00F
:1004B000842F90E0821B930B541710F0CF96089571
:1004C00001970895FC01918D828D981761F0A28D9E
:1004D000AE0FBF2FB11D5D968C91928D9F5F9F7364
:1004E000928F90E008958FEF9FEF0895FC01918D1A
:1004F000828D981731F0828DE80FF11D858D90E087
:1005000008958FEF9FEF0895FC01918D228D892F23
:1005100090E0805C9F4F821B91098F73992708950B
:1005200089E591E00E94840221E0892B09F420E012
:10053000822F089580E090E0892B29F00E9490029C
:1005400081110C9400000895FC01A48DA80FB92F0F
:10055000B11DA35ABF4F2C91848D90E001968F73EB
:100560009927848FA689B7892C93A089B1898C910A
:10057000837080648C93938D848D981306C0028859
:10058000F389E02D80818F7D80830895EF92FF9223
:100590000F931F93CF93DF93EC0181E0888F9B8DA6
:1005A0008C8D98131AC0E889F989808185FF15C060
:1005B0009FB7F894EE89FF896083E889F989808183
:1005C0008370806480839FBF81E090E0DF91CF9152
:1005D0001F910F91FF90EF900895F62E0B8D10E074
:1005E0000F5F1F4F0F731127E02E8C8D8E110CC0E3
:1005F0000FB607FCFACFE889F989808185FFF5CF2E
:10060000CE010E94A402F1CFEB8DEC0FFD2FF11D66
:10061000E35AFF4FF0829FB7F8940B8FEA89FB896A
:1006200080818062CFCFCF93DF93EC01888D8823C8
:10063000B9F0AA89BB89E889F9898C9185FD03C045
:10064000808186FD0DC00FB607FCF7CF8C9185FF2A
:10065000F2CF808185FFEDCFCE010E94A402E9CFC9
:10066000DF91CF91089590E0FC01E859FF4F24916C
:10067000FC01EC55FC4F3491FC01E057FC4FE49138
:10068000EE23C9F0222339F0233001F1A8F4213000
:1006900019F1223029F1F0E0EE0FFF1FE458FC4F72
:1006A000A591B4918FB7F894EC91611126C0309563
:1006B0003E233C938FBF08952730A9F02830C9F01E
:1006C000243049F7809180008F7D03C080918000A5
:1006D0008F7780938000DFCF84B58F7784BDDBCFA9
:1006E00084B58F7DFBCF8091B0008F778093B00071
:1006F000D2CF8091B0008F7DF9CF3E2BDACF3FB7BC
:10070000F8948091550190915601A0915701B091B4
:10071000580126B5A89B05C02F3F19F00196A11DD1
:10072000B11D3FBFBA2FA92F982F8827BC01CD013B
:10073000620F711D811D911D42E0660F771F881F9A
:10074000991F4A95D1F7089561E08091F8010C94C2
:1007500033038EBD00000DB407FEFDCF8EB50895A6
:10076000CF93DF93EC0160E08091F8010E943303A6
:100770008D2F0E94A9038C2FDF91CF910C94A90398
:100780001F93CF93DF93162FEA0190680E94B00366
:10079000219720F0812F0E94A903FACFDF91CF91FA
:1007A0001F910C94A403CF93DF93D62FC72F90688B
:1007B0000E94B0038D2F0E94A9038C2F0E94A903D1
:1007C000DF91CF910C94A403CF93C62F90680E9421
:1007D000B0038C2F0E94A903CF910C94A4031F9205
:1007E0000F920FB60F9211242F933F934F935F9365
:1007F0006F937F938F939F93AF93BF93EF93FF93E9
:1008000089E591E00E94A402FF91EF91BF91AF9121
:100810009F918F917F916F915F914F913F912F9118
:100820000F900FBE0F901F9018951F920F920FB64A
:100830000F9211242F938F939F93EF93FF93E09147
:100840006901F0916A018081E0916F01F09170017E
:1008500082FD1BC09081809172018F5F8F73209108
:100860007301821741F0E0917201F0E0E75AFE4F08
:10087000958F80937201FF91EF919F918F912F91AE
:100880000F900FBE0F901F9018958081F4CF1F928C
:100890000F920FB60F9211242F933F938F939F9334
:1008A000AF93BF938091510190915201A091530158
:1008B000B09154013091500123E0230F2D3758F5AA
:1008C0000196A11DB11D2093500180935101909379
:1008D0005201A0935301B09354018091550190911E
:1008E0005601A0915701B09158010196A11DB11D6B
:1008F0008093550190935601A0935701B0935801EE
:10090000BF91AF919F918F913F912F910F900FBE0B
:100910000F901F90189526E8230F0296A11DB11D78
:10092000D2CF789484B5826084BD84B5816084BD63
:1009300085B5826085BD85B5816085BD80916E007D
:10094000816080936E0010928100809181008260AE
:1009500080938100809181008160809381008091EB
:1009600080008160809380008091B10084608093DA
:10097000B1008091B00081608093B00080917A00D6
:10098000846080937A0080917A00826080937A00FC
:1009900080917A00816080937A0080917A008068EB
:1009A00080937A001092C1000E947F034B015C018A
:1009B000CAEFCC2ED12CE12CF12C0E947F036819B8
:1009C00079098A099B09683E734081059105A8F35E
:1009D00021E0C21AD108E108F10838EE830E33E0B5
:1009E000931EA11CB11CC114D104E104F10429F728
:1009F00089E08093F8010E940702CFB7F8948091B4
:100A0000F601811124C0EAE9F3E08491EEEAF3E013
:100A10009491E82FF0E0EE0FFF1FEA57FC4FA591ED
:100A2000B491EC91E92321F461E08AE00E94330360
:100A30008AE00E9407028CB580618CBD8CB5806411
:100A40008CBD8DE00E9407028BE00E94070280911E
:100A5000F6018F5F8093F601CFBF8CB58C7F8CBD84
:100A60008DB581608DBD8CB58F7D8CBD8CB5837F40
:100A70008CBD81E08DBD61E08091F8010E9433035F
:100A800061E089E098E20E94E40380E090EB0E943C
:100A9000B003C0E0D2E080E90E94A90381E00E9497
:100AA000A90380E90E94A90381E00E94A903809123
:100AB000F7018F5F8093F701219769F70E94A403E4
:100AC00040E058E260E090E080E00E94C00340E037
:100AD00058E060E080E098E30E94C00340E050E40A
:100AE00060E080E090E40E94C00340E051E060E0FC
:100AF00080E09AE20E94C00340E850E060E080E4B9
:100B000098E20E94C00370E060E084E098E20E94F6
:100B1000D30370E060E086E098E20E94D30360E0D7
:100B200088E098E20E94E40360E08AE098E20E9494
:100B3000E40360E08BE098E20E94E40360E08CE074
:100B400098E20E94E40370E060E08EE098E20E9488
:100B5000D30370E060E080E198E20E94D30370E08C
:100B600060E082E198E20E94D30370E060E08EE1F1
:100B700098E20E94D30360E484E198E20E94E403D7
:100B80000CE710E0C0E0D2E1F8018491A82FAF702B
:100B9000B0E0AA5EBE4FFC90E82FF0E0A4E0F5952F
:100BA000E795AA95E1F7EA5EFE4F6081CE010E94CB
:100BB000E4036F2DCE0101960E94E4030F5F1F4FE7
:100BC0002296C115F8E1DF07F9F6C0E0D1E260E056
:100BD00070E8CE010E94D3036FEF7FE7CE01069647
:100BE0000E94D3032896C11524E2D20781F740E082
:100BF00050E160E290E080E00E94C003A12C60E33D
:100C0000B62ED0E0C0E073E0C72ED12C7E0130EFCD
:100C1000E32288E4E80EF11C8E010F70112724E016
:100C2000000F111F2A95E1F70A5E1F4FC50190685A
:100C30000E94B0038E2D0E94A903CE0136E0959547
:100C400087953A95E1F7F601E81BF90BCF01880F7C
:100C5000991F8860F0E18F02C00111248F290E9442
:100C6000A903802F0E94A903CE01880F991F8E77B8
:100C70009927812B0E94A9030E94A403219624E0B6
:100C8000A20EB11CC11531E0D30709F0BFCF40E07F
:100C900050E460E080E090E40E94C0036FEF73E0F6
:100CA00086E898E20E94D30380E590E80E94B003B2
:100CB000C6E2D1E08991882319F00E94A903FACFF6
:100CC0000E94A40380E199E80E94B003CBE3D1E045
:100CD0008991882319F00E94A903FACF0E94A403E6
:100CE00000EC10E0C0E0D0E0409000015090010125
:100CF0006090020170900301C090F901D090FA0158
:100D0000E090FB01F090FC0120E030E040E850EC86
:100D1000C301B2010E94A4084B015C01A701960126
:100D2000C701B6010E94A40820E030E040E85FE37C
:100D30000E9446079B01AC01C501B4010E94B207A5
:100D40004B015C018092000190920101A09202018E
:100D5000B092030126E636E646E65FE3C701B60138
:100D60000E94A408A30192010E9446072B013C01A6
:100D70004092F9015092FA016092FB017092FC01DD
:100D800020E030E040E451E4C501B4010E94A40831
:100D900020E030E040E053E40E9446070E9424082F
:100DA000B62EC62ED12C20E030E040E851E4C3013D
:100DB000B2010E94A40820E030E040E053E40E9429
:100DC00046070E94240880E1689F700111246894FE
:100DD000F6F88B2D8F70E82A7C2D662766277073B6
:100DE000E62AF72AC7010E94B00380E00E94A90307
:100DF000B82E0E94A40395E0D594C7949A95E1F784
:100E0000E6E0CE22DD24B80102C075956795CA944C
:100E1000E2F76B29C7010E94E403209709F464CF2D
:100E20000E949002882309F45FCF0E9400005CCFEB
:100E3000E9E5F1E01382128288EE93E0A0E0B0E0F1
:100E400084839583A683B78388E091E09183808330
:100E500085EC90E09587848784EC90E0978786877F
:100E600080EC90E0918B808B81EC90E0938B828B77
:100E700082EC90E0958B848B86EC90E0978B868B50
:100E8000118E128E138E148E08955058BB27AA27E8
:100E90000E945D070C946A080E945C0838F00E946A
:100EA000630820F039F49F3F19F426F40C94590894
:100EB0000EF4E095E7FB0C945308E92F0E947B08A1
:100EC00058F3BA17620773078407950720F079F47F
:100ED000A6F50C949D080EF4E0950B2EBA2FA02DCC
:100EE0000B01B90190010C01CA01A0011124FF27D7
:100EF000591B99F0593F50F4503E68F11A16F040D2
:100F0000A22F232F342F4427585FF3CF46953795D0
:100F10002795A795F0405395C9F77EF41F16BA0B95
:100F2000620B730B840BBAF09150A1F0FF0FBB1F43
:100F3000661F771F881FC2F70EC0BA0F621F731F8C
:100F4000841F48F4879577956795B795F7959E3FE9
:100F500008F0B0CF9395880F08F09927EE0F97957A
:100F6000879508950E94C6070C946A080E9463083A
:100F700058F00E945C0840F029F45F3F29F00C947F
:100F8000530851110C949E080C9459080E947B0838
:100F900068F39923B1F3552391F3951B550BBB27A8
:100FA000AA2762177307840738F09F5F5F4F220FED
:100FB000331F441FAA1FA9F335D00E2E3AF0E0E8E4
:100FC00032D091505040E695001CCAF72BD0FE2F2E
:100FD00029D0660F771F881FBB1F261737074807C2
:100FE000AB07B0E809F0BB0B802DBF01FF2793587A
:100FF0005F4F3AF09E3F510578F00C9453080C94E3
:101000009E085F3FE4F3983ED4F386957795679505
:10101000B795F7959F5FC9F7880F911D96958795AE
:1010200097F90895E1E0660F771F881FBB1F6217CD
:1010300073078407BA0720F0621B730B840BBA0B8B
:10104000EE1F88F7E09508950E94830888F09F5767
:1010500098F0B92F9927B751B0F0E1F0660F771FDC
:10106000881F991F1AF0BA95C9F714C0B13091F0D2
:101070000E949D08B1E008950C949D08672F782F79
:101080008827B85F39F0B93FCCF386957795679597
:10109000B395D9F73EF490958095709561957F4F03
:1010A0008F4F9F4F089597F99F6780E870E060E049
:1010B00008959FEF80EC089500240A9416161706F1
:1010C00018060906089500240A9412161306140639
:1010D00005060895092E0394000C11F4882352F09C
:1010E000BB0F40F4BF2B11F460FF04C06F5F7F4F54
:1010F0008F4F9F4F089557FD9058440F551F59F03B
:101100005F3F71F04795880F97FB991F61F09F3FF4
:1011100079F087950895121613061406551FF2CF1D
:101120004695F1DF08C0161617061806991FF1CF6D
:1011300086957105610508940895E894BB27662794
:101140007727CB0197F908950E94B7080C946A0895
:101150000E945C0838F00E94630820F0952311F08B
:101160000C9453080C94590811240C949E080E9466
:101170007B0870F3959FC1F3950F50E0551F629F58
:10118000F001729FBB27F00DB11D639FAA27F00DE0
:10119000B11DAA1F649F6627B00DA11D661F829F07
:1011A0002227B00DA11D621F739FB00DA11D621FEC
:1011B000839FA00D611D221F749F3327A00D611D09
:1011C000231F849F600D211D822F762F6A2F1124EB
:1011D0009F5750409AF0F1F088234AF0EE0FFF1F1E
:1011E000BB1F661F771F881F91505040A9F79E3F75
:1011F000510580F00C9453080C949E085F3FE4F373
:10120000983ED4F3869577956795B795F795E795CA
:101210009F5FC1F7FE2B880F911D9695879597F9D3
:101220000895EE0FFF1F0590F491E02D0994F894B6
:10123000FFCFCDCCCC3D00000000C60226025302F9
:10124000130384026202760200030C0F30333C3F2A
:10125000C0C3CCCFF0F3FCFF526174696F6E616C58
:10126000206368616F746963206D6170004372650B
:1012700061746564206279204A4C532032303231E7
:0212800000006C
:107E0000112484B714BE81FFF0D085E080938100F7
:107E100082E08093C00088E18093C10086E0809377
:107E2000C20080E18093C4008EE0C9D0259A86E02C
:107E300020E33CEF91E0309385002093840096BBD3
:107E4000B09BFECF1D9AA8958150A9F7CC24DD24C4
:107E500088248394B5E0AB2EA1E19A2EF3E0BF2EE7
:107E6000A2D0813461F49FD0082FAFD0023811F036
:107E7000013811F484E001C083E08DD089C08234E0
:107E800011F484E103C0853419F485E0A6D080C0E4
:107E9000853579F488D0E82EFF2485D0082F10E0AE
:107EA000102F00270E291F29000F111F8ED06801E7
:107EB0006FC0863521F484E090D080E0DECF843638
:107EC00009F040C070D06FD0082F6DD080E0C81688
:107ED00080E7D80618F4F601B7BEE895C0E0D1E017
:107EE00062D089930C17E1F7F0E0CF16F0E7DF06D8
:107EF00018F0F601B7BEE89568D007B600FCFDCFD4
:107F0000A601A0E0B1E02C9130E011968C91119780
:107F100090E0982F8827822B932B1296FA010C0160
:107F200087BEE89511244E5F5F4FF1E0A038BF0790
:107F300051F7F601A7BEE89507B600FCFDCF97BE46
:107F4000E89526C08437B1F42ED02DD0F82E2BD052
:107F50003CD0F601EF2C8F010F5F1F4F84911BD097
:107F6000EA94F801C1F70894C11CD11CFA94CF0C13
:107F7000D11C0EC0853739F428D08EE10CD085E9AC
:107F80000AD08FE07ACF813511F488E018D01DD067
:107F900080E101D065CF982F8091C00085FFFCCF94
:107FA0009093C60008958091C00087FFFCCF809118
:107FB000C00084FD01C0A8958091C6000895E0E648
:107FC000F0E098E1908380830895EDDF803219F02E
:107FD00088E0F5DFFFCF84E1DECF1F93182FE3DFCA
:107FE0001150E9F7F2DF1F91089580E0E8DFEE27F6
:047FF000FF270994CA
:027FFE00040479
:00000001FF
