:020000040000FA
:100000000C941E020C9446020C9446020C94460278
:100010000C9446020C9446020C9446020C94460240
:100020000C9446020C9446020C9446020C94460230
:100030000C9446020C9446020C9446020C94460220
:100040000C9488040C9446020C9456040C943004CE
:100050000C9446020C9446020C9446020C94460200
:100060000C9446020C94460207634236B79BD8A70D
:100070001A39685618AEBAAB558C1D3CB7CC5763CD
:10008000BD6DEDFD753EF6177231BF000000803F7B
:1000900008000000BE922449123EABAAAA2ABECD97
:1000A000CCCC4C3E00000080BEABAAAAAA3E000009
:1000B0000000BF000000803F000000000008417801
:1000C000D3BB4387D1133D190E3CC3BD4282AD2B38
:1000D0003E68EC8276BED98FE1A93E4C80EFFFBE30
:1000E00001C4FF7F3F000000000000000008000284
:1000F00001000003040700000000000000000000F1
:1001000000000000000018181818180018006C6C87
:100110006C000000000036367F367F3636000C3F1C
:10012000683E0B7E180060660C1830660600386C5E
:100130006C386D663B000C183000000000000C1895
:10014000303030180C0030180C0C0C18300000182F
:100150007E3C7E1800000018187E18180000000071
:100160000000001818300000007E000000000000B1
:1001700000000018180000060C18306000003C66F3
:100180006E7E76663C001838181818187E003C669B
:10019000060C18307E003C66061C06663C000C1CF3
:1001A0003C6C7E0C0C007E607C0606663C001C30BD
:1001B000607C66663C007E060C18303030003C6681
:1001C000663C66663C003C66663E060C38000000F5
:1001D00018180018180000001818001818300C180B
:1001E000306030180C0000007E007E0000003018E7
:1001F0000C060C1830003C660C18180018003C6601
:100200006E6A6E603C003C66667E666666007C6672
:10021000667C66667C003C66606060663C00786C6C
:100220006666666C78007E60607C60607E007E60E2
:10023000607C606060003C66606E66663C0066667E
:10024000667E666666007E18181818187E003E0CDA
:100250000C0C0C6C3800666C7870786C6600606012
:10026000606060607E0063777F6B6B6363006666CF
:10027000767E6E6666003C66666666663C007C66F8
:10028000667C606060003C6666666A6C36007C6610
:10029000667C6C6666003C66603C06663C007E18C8
:1002A0001818181818006666666666663C0066666A
:1002B0006666663C180063636B6B7F7763006666F7
:1002C0003C183C6666006666663C181818007E0698
:1002D0000C1830607E007C60606060607C000060B4
:1002E00030180C0600003E06060606063E00183CC6
:1002F00066420000000000000000000000FF1C3605
:10030000307C30307E0000003C063E663E0060607F
:100310007C6666667C0000003C6660663C00060603
:100320003E6666663E0000003C667E603C001C3017
:10033000307C3030300000003E66663E063C606037
:100340007C66666666001800381818183C001800AD
:100350003818181818706060666C786C6600381869
:10036000181818183C000000367F6B6B6300000003
:100370007C666666660000003C6666663C000000BF
:100380007C66667C606000003E66663E0607000094
:100390006C766060600000003E603C067C0030309F
:1003A0007C3030301C000000666666663E0000004F
:1003B0006666663C18000000636B6B7F36000000C9
:1003C000663C183C660000006666663E063C00001F
:1003D0007E0C18307E000C18187018180C001818B5
:1003E0001800181818003018180E18183000316B43
:1003F000460000000000FFFFFFFFFFFFFFFF0000BF
:100400000000250028002B00000000002400270029
:100410002A00040404040404040402020202020286
:1004200003030303030301020408102040800102B8
:1004300004081020010204081020E70811241FBE40
:10044000CFEFD8E0DEBFCDBF11E0A0E0B1E0E4E542
:10045000F9E102C005900D92A035B107D9F721E06E
:10046000A0E5B1E001C01D92A93FB207E1F712E09B
:10047000CEE1D2E004C02197FE010E94A20CCD3152
:10048000D107C9F70E94D2040C94A80C0C94000068
:1004900090E0FC01EA5DFB4F24918E5E9B4FFC01D6
:1004A0008491882399F090E0880F991FFC01E85F00
:1004B000FB4FA591B491FC01E250FC4F85919491C2
:1004C0008FB7F894EC91E22BEC938FBF0895AF9225
:1004D000BF92CF92DF92EF92FF920F931F93CF9331
:1004E000DF936C017B018B01040F151FEB015E0193
:1004F000AE18BF08C017D10759F06991D601ED9128
:10050000FC910190F081E02DC6010995892B79F7C6
:10051000C501DF91CF911F910F91FF90EF90DF9078
:10052000CF90BF90AF900895FC01538D448D252F3F
:1005300030E0842F90E0821B930B541710F0CF967D
:10054000089501970895FC01918D828D981761F0AF
:10055000A28DAE0FBF2FB11D5D968C91928D9F5FC6
:100560009F73928F90E008958FEF9FEF0895FC01A5
:10057000918D828D981731F0828DE80FF11D858D58
:1005800090E008958FEF9FEF0895FC01918D228DEB
:10059000892F90E0805C9F4F821B91098F73992770
:1005A000089589E591E00E94C50221E0892B09F4B4
:1005B00020E0822F089580E090E0892B29F00E94AE
:1005C000D10281110C9400000895FC01A48DA80FA4
:1005D000B92FB11DA35ABF4F2C91848D90E0019685
:1005E0008F739927848FA689B7892C93A089B189A5
:1005F0008C91837080648C93938D848D981306C046
:100600000288F389E02D80818F7D80830895EF92A9
:10061000FF920F931F93CF93DF93EC0181E0888FBC
:100620009B8D8C8D98131AC0E889F989808185FF8C
:1006300015C09FB7F894EE89FF896083E889F9892E
:1006400080818370806480839FBF81E090E0DF9130
:10065000CF911F910F91FF90EF900895F62E0B8D83
:1006600010E00F5F1F4F0F731127E02E8C8D8E113E
:100670000CC00FB607FCFACFE889F989808185FFA5
:10068000F5CFCE010E94E502F1CFEB8DEC0FFD2FEF
:10069000F11DE35AFF4FF0829FB7F8940B8FEA8960
:1006A000FB8980818062CFCFCF93DF93EC01888D6F
:1006B0008823B9F0AA89BB89E889F9898C9185FDDD
:1006C00003C0808186FD0DC00FB607FCF7CF8C916B
:1006D00085FFF2CF808185FFEDCFCE010E94E5023C
:1006E000E9CFDF91CF91089590E0FC01E651FF4FF3
:1006F0002491FC01EA5DFB4F3491FC01EE5EFB4F5F
:10070000E491EE23C9F0222339F0233001F1A8F45B
:10071000213019F1223029F1F0E0EE0FFF1FE250F5
:10072000FC4FA591B4918FB7F894EC91611126C05C
:1007300030953E233C938FBF08952730A9F0283091
:10074000C9F0243049F7809180008F7D03C08091EB
:1007500080008F7780938000DFCF84B58F7784BD52
:10076000DBCF84B58F7DFBCF8091B0008F778093F6
:10077000B000D2CF8091B0008F7DF9CF3E2BDACF81
:100780003FB7F8948091550190915601A09157017F
:10079000B091580126B5A89B05C02F3F19F00196CE
:1007A000A11DB11D3FBFBA2FA92F982F8827BC01CB
:1007B000CD01620F711D811D911D42E0660F771FF3
:1007C000881F991F4A95D1F7089561E08091F8013B
:1007D0000C9474038EBD00000DB407FEFDCF8EB5E2
:1007E0000895CF93DF93EC0160E08091F8010E94BF
:1007F00074038D2F0E94EA038C2FDF91CF910C940C
:10080000EA031F93CF93DF93162FEA0190680E94AB
:10081000F103219720F0812F0E94EA03FACFDF91A4
:10082000CF911F910C94E503CF93DF93D62FC72F61
:1008300090680E94F1038D2F0E94EA038C2F0E9482
:10084000EA03DF91CF910C94E503CF93C62F906814
:100850000E94F1038C2F0E94EA03CF910C94E503D0
:100860001F920F920FB60F9211242F933F934F9325
:100870005F936F937F938F939F93AF93BF93EF9308
:10088000FF9389E591E00E94E502FF91EF91BF910E
:10089000AF919F918F917F916F915F914F913F9118
:1008A0002F910F900FBE0F901F9018951F920F92CF
:1008B0000FB60F9211242F938F939F93EF93FF9373
:1008C000E0916901F0916A018081E0916F01F091FE
:1008D000700182FD1BC09081809172018F5F8F73C8
:1008E00020917301821741F0E0917201F0E0E75A24
:1008F000FE4F958F80937201FF91EF919F918F91A1
:100900002F910F900FBE0F901F9018958081F4CFFC
:100910001F920F920FB60F9211242F933F938F9334
:100920009F93AF93BF938091510190915201A091F9
:100930005301B09154013091500123E0230F2D3722
:1009400058F50196A11DB11D2093500180935101CE
:1009500090935201A0935301B0935401809155019B
:1009600090915601A0915701B09158010196A11D97
:10097000B11D8093550190935601A0935701B093F8
:100980005801BF91AF919F918F913F912F910F90FF
:100990000FBE0F901F90189526E8230F0296A11DF9
:1009A000B11DD2CFCF93DF93CDB7DEB764970FB62B
:1009B000F894DEBF0FBECDBF789484B5826084BD4D
:1009C00084B5816084BD85B5826085BD85B5816053
:1009D00085BD80916E00816080936E0010928100D1
:1009E000809181008260809381008091810081608C
:1009F000809381008091800081608093800080914D
:100A0000B10084608093B1008091B00081608093D8
:100A1000B00080917A00846080937A0080917A009F
:100A2000826080937A0080917A00816080937A005E
:100A300080917A00806880937A001092C1000E94B1
:100A4000C0034B015C010AEFC02ED12CE12CF12C2C
:100A50000E94C003681979098A099B09683E73409E
:100A600081059105A8F321E0C21AD108E108F10837
:100A700038EE830E33E0931EA11CB11CC114D104C7
:100A8000E104F10429F789E08093F8010E9448020B
:100A9000BFB7B983F8948091F601811124C0ECE1CD
:100AA000F4E08491E0E3F4E09491E82FF0E0EE0FBD
:100AB000FF1FE85FFB4FA591B491EC91E92321F46E
:100AC00061E08AE00E9474038AE00E9448028CB5CB
:100AD00080618CBD8CB580648CBD8DE00E94480225
:100AE0008BE00E9448028091F6018F5F8093F601AF
:100AF000E981EFBF8CB58C7F8CBD8DB581608DBDDC
:100B00008CB58F7D8CBD8CB5837F8CBD81E08DBD18
:100B100061E08091F8010E94740361E089E098E24D
:100B20000E94250480E090EB0E94F10320E032E077
:100B30003A83298380E90E94EA0381E00E94EA0364
:100B400080E90E94EA0381E00E94EA038091F701B4
:100B50008F5F8093F70189819A8101979A838983B6
:100B6000892B41F70E94E50340E058E260E090E005
:100B700080E00E94010440E058E060E080E098E3FB
:100B80000E94010440E050E460E080E090E40E94B4
:100B9000010440E051E060E080E09AE20E9401043C
:100BA00040E850E060E080E498E20E94010470E0D8
:100BB00060E084E098E20E94140470E060E086E067
:100BC00098E20E94140460E088E098E20E94250404
:100BD00060E08AE098E20E94250460E08BE098E201
:100BE0000E94250460E08CE098E20E94250470E0F9
:100BF00060E08EE098E20E94140470E060E080E122
:100C000098E20E94140470E060E082E198E20E94A1
:100C1000140470E060E08EE198E20E94140460E445
:100C200084E198E20E9425040EEF10E0C12CB2E1AD
:100C3000DB2EF8018491A82FAF70B0E0A65EBE4F06
:100C4000FC90E82FF0E0A4E0F595E795AA95E1F790
:100C5000E65EFE4F6081C6010E9425046F2DC6012D
:100C600001960E9425040F5F1F4FF2E0CF0ED11CAA
:100C7000C11428E1D206E9F680E091E29A838983E3
:100C800060E070E889819A810E9414046FEF7FE729
:100C900089819A8106960E941404A981BA811896C6
:100CA000BA83A983A115B44259F740E050E160E24C
:100CB00090E080E00E940104A12C60E3B62E1A822D
:100CC000198273E0C72ED12CE980FA80F0EFEF2271
:100CD00028E4E20EF11C09811A810F70112724E02B
:100CE000000F111F2A95E1F70A5E1F4FC50190689A
:100CF0000E94F1038E2D0E94EA0389819A8136E0D9
:100D0000959587953A95E1F7D601A81BB90BCD01CA
:100D1000880F991F8860B0E18B02C00111248F29D0
:100D20000E94EA03802F0E94EA0389819A81880F3A
:100D3000991F8E779927812B0E94EA030E94E50371
:100D4000E981FA813196FA83E983F4E0AF0EB11CB0
:100D500029813A812115314009F0B6CF40E050E4B5
:100D600060E080E090E40E9401046FEF73E086E8A9
:100D700098E20E94140481E590E80E94F103AAE23F
:100D8000B1E0BA83A983E981FA818191FA83E98389
:100D9000882319F00E94EA03F6CF0E94E50380E160
:100DA00099E80E94F1032CE331E03A832983A98179
:100DB000BA818D91BA83A983882319F00E94EA032E
:100DC000F6CF0E94E50300EC10E0C0900401D09043
:100DD0000501E0900601F0900701A7019601C70107
:100DE000B6010E94010A6D837E838F83988720E07D
:100DF00030E040E450E4C701B6010E946E0A6D87FE
:100E00007E878F87988B8091000190910101A0913E
:100E10000201B091030189839A83AB83BC839C0157
:100E2000AD01CD01B9010E94010A69877A878B87DC
:100E30009C8720E030E040E450E469817A818B8136
:100E40009C810E946E0A698B7A8B8B8B9C8B2AE922
:100E500039E949E15FE3C701B6010E94010A2DECBF
:100E60003CEC4CEC5EE30E9414094B015C0120E079
:100E700030E0A9016D817E818F8198850E94010AF1
:100E80009B01AC01C501B4010E9415094B015C0135
:100E900020E030E040E05FEB6D857E858F859889AE
:100EA0000E94010A9B01AC01C501B4010E94150911
:100EB0004B015C012DEC3CEC4CEC5EE36D817E81E2
:100EC0008F8198850E94010A29813A814B815C813A
:100ED0000E94010A9B01AC01C501B4010E941509E1
:100EE0004B015C01C701B601905829813A814B81C1
:100EF0005C810E94010A9B01AC01C501B4010E9402
:100F000015094B015C0120E030E040E05FEBC701D8
:100F1000B6010E94010A29853A854B855C850E94AD
:100F2000010A9B01AC01C501B4010E9415094B01E6
:100F30005C012AE939E949E95EE369817A818B81BB
:100F40009C810E94010A9B01AC01C501B4010E9471
:100F500015094B015C0126E636E646E65FEB69853E
:100F60007A858B859C850E94010A9B01AC01C50195
:100F7000B4010E9415094B015C0123E333E343E311
:100F80005FEB69897A898B899C890E94010A9B01A0
:100F9000AC01C501B4010E9415094B015C018092AE
:100FA000040190920501A0920601B092070123E38B
:100FB00033E343E35FEBC701B6010E94010A2DEC66
:100FC0003CEC4CE45EE30E9414092B013C012DEC47
:100FD0003CEC4CE85FEB6D817E818F8198850E94AF
:100FE000010A9B01AC01C301B2010E9415092B014A
:100FF0003C012DEC3CEC4CE45EEB6D857E858F85F1
:1010000098890E94010A9B01AC01C301B2010E94B0
:1010100015092B013C012DEC3CEC4CE45FEB6D81A0
:101020007E818F8198850E94010A29813A814B81B6
:101030005C810E94010A9B01AC01C301B2010E94C4
:1010400015092B013C012AE939E949E95FEBC701A0
:10105000B6010E94010A29813A814B815C810E947C
:10106000010A9B01AC01C301B2010E9415092B01C9
:101070003C012DEC3CEC4CEC5DEBC701B6010E9451
:10108000010A29853A854B855C850E94010A9B01EE
:10109000AC01C301B2010E9415096B017C012DEC6A
:1010A0003CEC4CEC5EEB69817A818B819C810E94E7
:1010B000010A9B01AC01C701B6010E9415096B0131
:1010C0007C0123E333E343E35FEB69857A858B851A
:1010D0009C850E94010A9B01AC01C701B6010E94D8
:1010E00015096B017C0126E636E646E65FEB698969
:1010F0007A898B899C890E94010A9B01AC01C701F6
:10110000B6010E9415092B013C014092000150924A
:101110000101609202017092030120E030E040EF93
:1011200052E4C501B4010E94010A20E030E040E52C
:1011300053E40E9415090E948109B62EC62ED12CB7
:1011400020E030E044E153E4C301B2010E94010A0F
:1011500020E030E040E253E40E9415090E9481093A
:1011600090E1699F700111248B2D8F70E82A68949B
:10117000F6F87C2D662766277073E62AF72AC701E2
:101180000E94F10380E00E94EA03B82E0E94E5036A
:1011900095E0D594C7949A95E1F7A6E0CA22DD249C
:1011A000B80102C075956795CA94E2F76B29C7012B
:1011B0000E942504E0E0F0E0EF2B09F406CE0E9447
:1011C000D102882309F401CE0E940000FECDE9E59A
:1011D000F1E01382128288EE93E0A0E0B0E0848315
:1011E0009583A683B7838CE091E09183808385EC1F
:1011F00090E09587848784EC90E09787868780ECE1
:1012000090E0918B808B81EC90E0938B828B82ECD1
:1012100090E0958B848B86EC90E0978B868B118E7B
:10122000128E138E148E08955058BB27AA270E9441
:101230002C090C94C7090E94B90938F00E94C00912
:1012400020F039F49F3F19F426F40C94B6090EF4FB
:10125000E095E7FB0C94B009E92F0E94D80958F3F8
:10126000BA17620773078407950720F079F4A6F58B
:101270000C94FA090EF4E0950B2EBA2FA02D0B0159
:10128000B90190010C01CA01A0011124FF27591BCB
:1012900099F0593F50F4503E68F11A16F040A22FD1
:1012A000232F342F4427585FF3CF46953795279542
:1012B000A795F0405395C9F77EF41F16BA0B620B41
:1012C000730B840BBAF09150A1F0FF0FBB1F661F88
:1012D000771F881FC2F70EC0BA0F621F731F841FCB
:1012E00048F4879577956795B795F7959E3F08F0F1
:1012F000B0CF9395880F08F09927EE0F97958795B3
:1013000008950E94E00988F09F5798F0B92F992717
:10131000B751B0F0E1F0660F771F881F991F1AF0E0
:10132000BA95C9F714C0B13091F00E94FA09B1E042
:1013300008950C94FA09672F782F8827B85F39F041
:10134000B93FCCF3869577956795B395D9F73EF479
:1013500090958095709561957F4F8F4F9F4F089521
:1013600097F99F6780E870E060E008959FEF80EC58
:10137000089500240A9416161706180609060895FB
:1013800000240A9412161306140605060895092E61
:101390000394000C11F4882352F0BB0F40F4BF2BD0
:1013A00011F460FF04C06F5F7F4F8F4F9F4F089510
:1013B00057FD9058440F551F59F05F3F71F0479506
:1013C000880F97FB991F61F09F3F79F087950895EB
:1013D000121613061406551FF2CF4695F1DF08C00A
:1013E000161617061806991FF1CF86957105610527
:1013F00008940895E894BB2766277727CB0197F9CF
:1014000008950E94140A0C94C7090E94B90938F083
:101410000E94C00920F0952311F00C94B0090C949F
:10142000B60911240C94FB090E94D80970F3959F0A
:10143000C1F3950F50E0551F629FF001729FBB27CB
:10144000F00DB11D639FAA27F00DB11DAA1F649F67
:101450006627B00DA11D661F829F2227B00DA11D1A
:10146000621F739FB00DA11D621F839FA00D611DA0
:10147000221F749F3327A00D611D231F849F600DC1
:10148000211D822F762F6A2F11249F5750409AF0EA
:10149000F1F088234AF0EE0FFF1FBB1F661F771F76
:1014A000881F91505040A9F79E3F510580F00C9441
:1014B000B0090C94FB095F3FE4F3983ED4F38695A2
:1014C00077956795B795F795E7959F5FC1F7FE2BE1
:1014D000880F911D9695879597F90895FA01EE0F5B
:1014E000FF1F309621053105A1F16115710561F4E9
:1014F0008038BFE39B0749F168949038810561F01B
:101500008038BFEF9B0741F099234AF5FF3FE10583
:101510003105210519F1E8940894E795D901AA232A
:1015200029F4AB2FBE2FF85FD0F310C0FF5F70F42B
:10153000A695E0F7F73950F019F0FF3A38F49F77A5
:101540009F930DD00F9007FC9058089546F00C948F
:10155000B60960E070E080E89FE308954FE79F7769
:101560005F934F933F932F930E94690B2F913F916D
:101570004F915F910E94010A0C94C60A29F416F05B
:101580000C94B0090C94FA090C94B6090E94E00975
:10159000A8F39638A0F707F80F92E8942BE33AEAFD
:1015A00048EB5FE70E94170A0F920F920F924DB718
:1015B0005EB70F920E94B10BE8E6F0E00E94F80AD5
:1015C0004F915F91EF91FF91E595EE1FFF1F49F05D
:1015D000FE57E0684427EE0F441FFA95E1F7419566
:1015E000550B0E942B0B0F9007FE0C941F0B0895B8
:1015F000DF93CF931F930F93FF92EF92DF927B01C4
:101600008C01689406C0DA2EEF010E94140AFE01D4
:10161000E894A5912591359145915591A6F3EF0157
:101620000E942C09FE019701A801DA9469F7DF9066
:10163000EF90FF900F911F91CF91DF9108959B0143
:10164000AC0160E070E080E89FE30C94E50B0C9443
:10165000B0090C94940C0E94E009D8F39923C9F3C3
:10166000940F511DA3F39150504094F059F08823EA
:1016700032F0660F771F881F91505040C1F79E3F90
:1016800051052CF7880F911D9695879597F9089528
:101690005F3FACF0983E9CF0BB27869577956795A9
:1016A000B79508F4B1609395C1F7BB0F58F711F4E3
:1016B00060FFE8CF6F5F7F4F8F4F9F4FE3CF0C945A
:1016C000FB0916F00C94940C0C94B60968940C94D5
:1016D000B0090E94E009A8F39923C1F3AEF3DF93A8
:1016E000CF931F930F93FF92C92FDD2788232AF0F2
:1016F0002197660F771F881FDAF720E030E040E877
:101700005FEB9FE3883920F0803E38F021968F7799
:101710000E941509E0E9F0E004C00E941509EDEB14
:10172000F0E00E94F80A8B01BE01EC01FB2E6F571E
:1017300071097595771F880B990B0E94590C28E148
:1017400032E741E35FE30E94140AAF2D9801AE0136
:10175000FF900F911F91CF91DF910E942C090C9463
:10176000C709FA01DC01AA0FBB1F9B01AC01BF57DF
:1017700028F4222733274427507820C0B75190F40B
:10178000AB2F0024469537952795011CA395D2F3DE
:10179000002071F0220F331F441FB395DAF30ED0EF
:1017A0000C94140961307105A0E88A07B94630F439
:1017B0009B01AC016627772788279078309621F027
:1017C000208331834283538308950E94F90B0C9444
:1017D000C7090E94C00958F00E94B90940F029F4D5
:1017E0005F3F29F00C94B00951110C94FB090C9443
:1017F000B6090E94D80968F39923B1F3552391F3F0
:10180000951B550BBB27AA2762177307840738F06F
:101810009F5F5F4F220F331F441FAA1FA9F335D0CC
:101820000E2E3AF0E0E832D091505040E695001C80
:10183000CAF72BD0FE2F29D0660F771F881FBB1F3A
:10184000261737074807AB07B0E809F0BB0B802D18
:10185000BF01FF2793585F4F3AF09E3F510578F044
:101860000C94B0090C94FB095F3FE4F3983ED4F369
:10187000869577956795B795F7959F5FC9F7880F18
:10188000911D9695879597F90895E1E0660F771F6A
:10189000881FBB1F621773078407BA0720F0621BFB
:1018A000730B840BBA0BEE1F88F7E0950895E8944C
:1018B00009C097FB3EF490958095709561957F4F98
:1018C0008F4F9F4F9923A9F0F92F96E9BB27939546
:1018D000F695879577956795B795F111F8CFFAF456
:1018E000BB0F11F460FF1BC06F5F7F4F8F4F9F4F87
:1018F00016C0882311F096E911C0772321F09EE8E5
:10190000872F762F05C0662371F096E8862F70E04A
:1019100060E02AF09A95660F771F881FDAF7880F24
:101920009695879597F908959F3F31F0915020F44F
:10193000879577956795B795880F911D96958795AB
:1019400097F90895EE0FFF1F0590F491E02D09948B
:10195000F894FFCFCDCCCC3DCDCCCC3D00000000E9
:101960000703670294025403C502A302B7020003EF
:101970000C0F30333C3FC0C3CCCFF0F3FCFF4375BA
:10198000626963206368616F746963206D617000D0
:1019900043726561746564206279204A4C53203239
:0419A00030323100B0
:107E0000112484B714BE81FFF0D085E080938100F7
:107E100082E08093C00088E18093C10086E0809377
:107E2000C20080E18093C4008EE0C9D0259A86E02C
:107E300020E33CEF91E0309385002093840096BBD3
:107E4000B09BFECF1D9AA8958150A9F7CC24DD24C4
:107E500088248394B5E0AB2EA1E19A2EF3E0BF2EE7
:107E6000A2D0813461F49FD0082FAFD0023811F036
:107E7000013811F484E001C083E08DD089C08234E0
:107E800011F484E103C0853419F485E0A6D080C0E4
:107E9000853579F488D0E82EFF2485D0082F10E0AE
:107EA000102F00270E291F29000F111F8ED06801E7
:107EB0006FC0863521F484E090D080E0DECF843638
:107EC00009F040C070D06FD0082F6DD080E0C81688
:107ED00080E7D80618F4F601B7BEE895C0E0D1E017
:107EE00062D089930C17E1F7F0E0CF16F0E7DF06D8
:107EF00018F0F601B7BEE89568D007B600FCFDCFD4
:107F0000A601A0E0B1E02C9130E011968C91119780
:107F100090E0982F8827822B932B1296FA010C0160
:107F200087BEE89511244E5F5F4FF1E0A038BF0790
:107F300051F7F601A7BEE89507B600FCFDCF97BE46
:107F4000E89526C08437B1F42ED02DD0F82E2BD052
:107F50003CD0F601EF2C8F010F5F1F4F84911BD097
:107F6000EA94F801C1F70894C11CD11CFA94CF0C13
:107F7000D11C0EC0853739F428D08EE10CD085E9AC
:107F80000AD08FE07ACF813511F488E018D01DD067
:107F900080E101D065CF982F8091C00085FFFCCF94
:107FA0009093C60008958091C00087FFFCCF809118
:107FB000C00084FD01C0A8958091C6000895E0E648
:107FC000F0E098E1908380830895EDDF803219F02E
:107FD00088E0F5DFFFCF84E1DECF1F93182FE3DFCA
:107FE0001150E9F7F2DF1F91089580E0E8DFEE27F6
:047FF000FF270994CA
:027FFE00040479
:00000001FF
