:020000040000FA
:100000000C94EC010C9414020C9414020C94140241
:100010000C9414020C9414020C9414020C94140208
:100020000C9414020C9414020C9414020C941402F8
:100030000C9414020C9414020C9414020C941402E8
:100040000C9456040C9414020C9424040C94FE0397
:100050000C9414020C9414020C9414020C941402C8
:100060000C9414020C94140205A84CCDB2D44EB9D1
:100070003836A9020C50B9918688083CA6AAAA2A4B
:10008000BE000000803F00000008000201000003E5
:100090000407000000000000000000000000000055
:1000A000000018181818180018006C6C6C0000007C
:1000B000000036367F367F3636000C3F683E0B7EBA
:1000C000180060660C1830660600386C6C386D6677
:1000D0003B000C183000000000000C1830303018C5
:1000E0000C0030180C0C0C18300000187E3C7E18E8
:1000F00000000018187E181800000000000000180A
:1001000018300000007E0000000000000000001811
:10011000180000060C18306000003C666E7E7666A3
:100120003C001838181818187E003C66060C183069
:100130007E003C66061C06663C000C1C3C6C7E0C7B
:100140000C007E607C0606663C001C30607C6666A7
:100150003C007E060C18303030003C66663C66661B
:100160003C003C66663E060C38000000181800187B
:10017000180000001818001818300C1830603018DB
:100180000C0000007E007E00000030180C060C18E9
:1001900030003C660C18180018003C666E6A6E60F1
:1001A0003C003C66667E666666007C66667C6666CB
:1001B0007C003C66606060663C00786C6666666CDD
:1001C00078007E60607C60607E007E60607C606045
:1001D00060003C66606E66663C006666667E6666CB
:1001E00066007E18181818187E003E0C0C0C0C6C5B
:1001F0003800666C7870786C660060606060606083
:100200007E0063777F6B6B6363006666767E6E66E7
:1002100066003C66666666663C007C66667C60607E
:1002200060003C6666666A6C36007C66667C6C665E
:1002300066003C66603C06663C007E18181818187C
:1002400018006666666666663C0066666666663CBC
:10025000180063636B6B7F77630066663C183C66CF
:1002600066006666663C181818007E060C1830603A
:100270007E007C60606060607C00006030180C066E
:1002800000003E06060606063E00183C66420000D8
:10029000000000000000000000FF1C36307C303001
:1002A0007E0000003C063E663E0060607C6666663E
:1002B0007C0000003C6660663C0006063E666666A2
:1002C0003E0000003C667E603C001C30307C3030DC
:1002D000300000003E66663E063C60607C666666F6
:1002E00066001800381818183C001800381818183C
:1002F00018706060666C786C6600381818181818EA
:100300003C000000367F6B6B630000007C66666615
:10031000660000003C6666663C0000007C66667C09
:10032000606000003E66663E060700006C76606016
:10033000600000003E603C067C0030307C30303095
:100340001C000000666666663E0000006666663C4D
:1003500018000000636B6B7F36000000663C183CA1
:10036000660000006666663E063C00007E0C1830A3
:100370007E000C18187018180C001818180018189F
:1003800018003018180E18183000316B46000000A5
:100390000000FFFFFFFFFFFFFFFF00000000250040
:1003A00028002B0000000000240027002A0004047D
:1003B000040404040404020202020202030303030D
:1003C00003030102040810204080010204081020E9
:1003D0000102040810207B0711241FBECFEFD8E0D4
:1003E000DEBFCDBF11E0A0E0B1E0E6EDF3E102C079
:1003F00005900D92AC35B107D9F722E0ACE5B1E03C
:1004000001C01D92A530B207E1F711E0CCEED1E0BA
:1004100004C02197FE010E94E309CB3ED107C9F732
:100420000E94A0040C94E9090C94000090E0FC01E7
:10043000EE53FC4F249182559C4FFC0184918823FC
:1004400099F090E0880F991FFC01EC55FC4FA591A5
:10045000B491FC01E656FC4F859194918FB7F894C6
:10046000EC91E22BEC938FBF0895AF92BF92CF92A5
:10047000DF92EF92FF920F931F93CF93DF936C0164
:100480007B018B01040F151FEB015E01AE18BF0845
:10049000C017D10759F06991D601ED91FC910190F7
:1004A000F081E02DC6010995892B79F7C501DF910F
:1004B000CF911F910F91FF90EF90DF90CF90BF9061
:1004C000AF900895FC01538D448D252F30E0842F8B
:1004D00090E0821B930B541710F0CF96089501976C
:1004E0000895FC01918D828D981761F0A28DAE0F59
:1004F000BF2FB11D5D968C91928D9F5F9F73928FE0
:1005000090E008958FEF9FEF0895FC01918D828D0B
:10051000981731F0828DE80FF11D858D90E00895D8
:100520008FEF9FEF0895FC01918D228D892F90E030
:10053000805C9F4F821B91098F739927089585E6F0
:1005400091E00E94930221E0892B09F420E0822FA0
:10055000089580E090E0892B29F00E949F0281118C
:100560000C9400000895FC01A48DA80FB92FB11DB3
:10057000A35ABF4F2C91848D90E001968F739927D9
:10058000848FA689B7892C93A089B1898C918370B7
:1005900080648C93938D848D981306C00288F389B0
:1005A000E02D80818F7D80830895EF92FF920F93DD
:1005B0001F93CF93DF93EC0181E0888F9B8D8C8D0F
:1005C00098131AC0E889F989808185FF15C09FB703
:1005D000F894EE89FF896083E889F98980818370C6
:1005E000806480839FBF81E090E0DF91CF911F9175
:1005F0000F91FF90EF900895F62E0B8D10E00F5F96
:100600001F4F0F731127E02E8C8D8E110CC00FB66B
:1006100007FCFACFE889F989808185FFF5CFCE0103
:100620000E94B302F1CFEB8DEC0FFD2FF11DE35AC9
:10063000FF4FF0829FB7F8940B8FEA89FB89808186
:100640008062CFCFCF93DF93EC01888D8823B9F000
:10065000AA89BB89E889F9898C9185FD03C08081CD
:1006600086FD0DC00FB607FCF7CF8C9185FFF2CF4A
:10067000808185FFEDCFCE010E94B302E9CFDF91EB
:10068000CF91089590E0FC01EA57FF4F2491FC01BF
:10069000EE53FC4F3491FC01E255FC4FE491EE2304
:1006A000C9F0222339F0233001F1A8F4213019F1E7
:1006B000223029F1F0E0EE0FFF1FE656FC4FA59126
:1006C000B4918FB7F894EC91611126C030953E2318
:1006D0003C938FBF08952730A9F02830C9F024300B
:1006E00049F7809180008F7D03C0809180008F77D3
:1006F00080938000DFCF84B58F7784BDDBCF84B556
:100700008F7DFBCF8091B0008F778093B000D2CFE8
:100710008091B0008F7DF9CF3E2BDACF3FB7F894B0
:100720008091610190916201A0916301B091640197
:1007300026B5A89B05C02F3F19F00196A11DB11D3C
:100740003FBFBA2FA92F982F8827BC01CD01620F78
:10075000711D811D911D42E0660F771F881F991F33
:100760004A95D1F7089561E0809104020C94420308
:100770008EBD00000DB407FEFDCF8EB50895CF935A
:10078000DF93EC0160E0809104020E9442038D2F10
:100790000E94B8038C2FDF91CF910C94B8031F9364
:1007A000CF93DF93162FEA0190680E94BF03219731
:1007B00020F0812F0E94B803FACFDF91CF911F91D3
:1007C0000C94B303CF93DF93D62FC72F90680E946A
:1007D000BF038D2F0E94B8038C2F0E94B803DF91B6
:1007E000CF910C94B303CF93C62F90680E94BF03A0
:1007F0008C2F0E94B803CF910C94B3031F920F92D9
:100800000FB60F9211242F933F934F935F936F93E3
:100810007F938F939F93AF93BF93EF93FF9385E65F
:1008200091E00E94B302FF91EF91BF91AF919F9130
:100830008F917F916F915F914F913F912F910F9089
:100840000FBE0F901F9018951F920F920FB60F9228
:1008500011242F938F939F93EF93FF93E091750152
:10086000F09176018081E0917B01F0917C0182FD25
:100870001BC0908180917E018F5F8F7320917F01DB
:10088000821741F0E0917E01F0E0EB59FE4F958F29
:1008900080937E01FF91EF919F918F912F910F9007
:1008A0000FBE0F901F9018958081F4CF1F920F926A
:1008B0000FB60F9211242F933F938F939F93AF9373
:1008C000BF9380915D0190915E01A0915F01B09115
:1008D000600130915C0123E0230F2D3758F501961C
:1008E000A11DB11D20935C0180935D0190935E0179
:1008F000A0935F01B09360018091610190916201CA
:10090000A0916301B09164010196A11DB11D809376
:10091000610190936201A0936301B0936401BF9160
:10092000AF919F918F913F912F910F900FBE0F909C
:100930001F90189526E8230F0296A11DB11DD2CF56
:10094000CF93DF9300D000D0CDB7DEB7789484B5D5
:10095000826084BD84B5816084BD85B5826085BDBB
:1009600085B5816085BD80916E00816080936E0049
:10097000109281008091810082608093810080913B
:1009800081008160809381008091800081608093EC
:1009900080008091B10084608093B1008091B000AC
:1009A00081608093B00080917A00846080937A00A7
:1009B00080917A00826080937A0080917A008160D1
:1009C00080937A0080917A00806880937A001092F8
:1009D000C1000E948E034B015C010AEFC02ED12C96
:1009E000E12CF12C0E948E03681979098A099B0970
:1009F000683E734081059105A8F321E0C21AD10831
:100A0000E108F10838EE830E33E0931EA11CB11CFF
:100A1000C114D104E104F10429F789E080930402B0
:100A20000E941602FFB7F983F894809102028111A7
:100A300024C0E8EBF3E08491ECECF3E09491E82F30
:100A4000F0E0EE0FFF1FEC55FC4FA591B491EC9137
:100A5000E92321F461E08AE00E9442038AE00E94D7
:100A600016028CB580618CBD8CB580648CBD8DE028
:100A70000E9416028BE00E941602809102028F5F94
:100A80008093020229812FBF8CB58C7F8CBD8DB5E0
:100A900081608DBD8CB58F7D8CBD8CB5837F8CBD09
:100AA00081E08DBD61E0809104020E94420361E01B
:100AB00089E098E20E94F30380E090EB0E94BF037C
:100AC00080E092E09A83898380E90E94B80381E004
:100AD0000E94B80380E90E94B80381E00E94B80335
:100AE000809103028F5F80930302E981FA8131973D
:100AF000FA83E983EF2B41F70E94B30340E058E209
:100B000060E090E080E00E94CF0340E058E060E0C9
:100B100080E098E30E94CF0340E050E460E080E092
:100B200090E40E94CF0340E051E060E080E09AE270
:100B30000E94CF0340E850E060E080E498E20E9429
:100B4000CF0370E060E084E098E20E94E20370E08E
:100B500060E086E098E20E94E20360E088E098E2CC
:100B60000E94F30360E08AE098E20E94F30360E0F1
:100B70008BE098E20E94F30360E08CE098E20E9430
:100B8000F30370E060E08EE098E20E94E20370E020
:100B900060E080E198E20E94E20370E060E082E1C0
:100BA00098E20E94E20370E060E08EE198E20E9429
:100BB000E20360E484E198E20E94F3030AE910E0B2
:100BC000C12CB2E1DB2EF8018491A82FAF70B0E008
:100BD000A25EBE4FFC90E82FF0E0A4E0F595E7950B
:100BE000AA95E1F7E25EFE4F6081C6010E94F30321
:100BF0006F2DC60101960E94F3030F5F1F4FF2E0B5
:100C0000CF0ED11CC11428E1D206E9F680E091E2B2
:100C10009A83898360E070E889819A810E94E20367
:100C20006FEF7FE789819A8106960E94E203E9814E
:100C3000FA813896FA83E983E115F44259F740E0E6
:100C400050E160E290E080E00E94CF03A12C60E3DD
:100C5000B62E1A82198273E0C72ED12CE980FA8051
:100C600030EFE32288E4E80EF11C09811A810F704D
:100C7000112724E0000F111F2A95E1F70A5E1F4F8C
:100C8000C50190680E94BF038E2D0E94B803898120
:100C90009A8136E0959587953A95E1F7F601E81B3C
:100CA000F90BCF01880F991F8860F0E18F02C00116
:100CB00011248F290E94B803802F0E94B8038981D4
:100CC0009A81880F991F8E779927812B0E94B803EC
:100CD0000E94B30329813A812F5F3F4F3A832983D2
:100CE00034E0A30EB11C89819A818115914009F0ED
:100CF000B5CF40E050E460E080E090E40E94CF0394
:100D00006FEF73E086E898E20E94E2038DE490E8DA
:100D10000E94BF032EE231E03A832983E981FA8100
:100D20008191FA83E983882319F00E94B803F6CFF2
:100D30000E94B30380E199E80E94BF0328E431E0F8
:100D40003A832983E981FA818191FA83E9838823AF
:100D500019F00E94B803F6CF0E94B30300EC10E034
:100D6000C0900801D0900901E0900A01F0900B01B9
:100D700040900001509001016090020170900301C9
:100D80002BED3FE049EC50E4C301B2010E943B0966
:100D90000E94150869837A838B839C83A70196013F
:100DA000C701B6010E943B099B01AC0163E373E3F9
:100DB00083E99FE30E94A807209104013091050177
:100DC00040910601509107010E94A9074B015C0167
:100DD0002AE939E949E95EE369817A818B819C815D
:100DE0000E943B099B01AC01C501B4010E94A90707
:100DF0004B015C018092080190920901A0920A01C6
:100E0000B0920B012DEC3CEC4CE45DE3C701B60164
:100E10000E943B09609304017093050180930601D1
:100E2000909307012FE335E34EE15FE3C301B20185
:100E30000E94A90720E030E040E85FE30E945408E8
:100E4000609300017093010180930201909303016C
:100E500020E030E040E853E40E943B090E941A0879
:100E6000C62ED12C6F70E62EF12C6894F6F87C2DEE
:100E7000662766277073E62AF72A20E030E042EB07
:100E800052E4C501B4010E943B0920E030E04EEE7F
:100E900052E40E94A9070E941A08F0E16F9FB00176
:100EA0001124E62AF72AC7010E94BF0380E00E94AE
:100EB000B803B82E0E94B30395E0D594C7949A95D1
:100EC000E1F726E0C222DD24B80102C075956795DE
:100ED000CA94E2F76B29C7010E94F30380E090E017
:100EE000892B09F43DCF0E949F02882309F438CF53
:100EF0000E94000035CFE5E6F1E01382128288EE11
:100F000093E0A0E0B0E084839583A683B78380E17B
:100F100091E09183808385EC90E09587848784ECD1
:100F200090E09787868780EC90E0918B808B81ECB6
:100F300090E0938B828B82EC90E0958B848B86EC97
:100F400090E0978B868B118E128E138E148E0895DF
:100F50005058BB27AA270E94C0070C94ED080E9496
:100F6000B40838F00E94BB0820F039F49F3F19F410
:100F700026F40C94B1080EF4E095E7FB0C949D0860
:100F8000E92F0E94120958F3BA1762077307840702
:100F9000950720F079F4A6F50C9434090EF4E09549
:100FA0000B2EBA2FA02D0B01B90190010C01CA0123
:100FB000A0011124FF27591B99F0593F50F4503ECE
:100FC00068F11A16F040A22F232F342F4427585FC0
:100FD000F3CF469537952795A795F0405395C9F7D8
:100FE0007EF41F16BA0B620B730B840BBAF0915090
:100FF000A1F0FF0FBB1F661F771F881FC2F70EC02F
:10100000BA0F621F731F841F48F487957795679501
:10101000B795F7959E3F08F0B0CF9395880F08F0ED
:101020009927EE0F9795879508950E94C408E39538
:101030000C94FE080E941A0988F09F5798F0B92F67
:101040009927B751B0F0E1F0660F771F881F991FFD
:101050001AF0BA95C9F714C0B13091F00E94340962
:10106000B1E008950C943409672F782F8827B85F72
:1010700039F0B93FCCF3869577956795B395D9F755
:101080003EF490958095709561957F4F8F4F9F4F5F
:1010900008950E94B40820F019F00E94BB0850F493
:1010A0000C94B1080C943509E92F0E94120988F3B9
:1010B0005523B1F3E7FB6217730784079507A8F17F
:1010C00089F3E92FFF2788232AF03197660F771FCE
:1010D000881FDAF7952F5527442332F0915050405E
:1010E000220F331F441FD2F7BB27E91BF50B621BEE
:1010F000730B840BB109B1F222F4620F731F841FCA
:10110000B11D31972AF0660F771F881FBB1FEFCFE5
:101110009150504062F041F0882332F0660F771F03
:10112000881F91505040C1F793950C94A308869561
:10113000779567959F5FD9F7F7CF97F99F6780E815
:1011400070E060E008959F3F31F0915020F4879562
:1011500077956795B795880F911D9695879597F91F
:1011600008959FEF80EC089500240A941616170640
:1011700018060906089500240A9412161306140688
:10118000050608950C94B1080E941A09D8F3E89452
:10119000E0E0BB279F57F0F02AED3FE049EC06C0A6
:1011A000EE0FBB0F661F771F881F28F0B23A620749
:1011B0007307840728F0B25A620B730B840BE39514
:1011C0009A9572F7803830F49A95BB0F661F771F97
:1011D000881FD2F790480C94A508092E0394000CA0
:1011E00011F4882352F0BB0F40F4BF2B11F460FFC1
:1011F00004C06F5F7F4F8F4F9F4F0895EF93E0FFC5
:1012000007C0A2EA2AED3FE049EC5FEB0E94C0076D
:101210000E94ED080F90039401FC9058E8E6F0E07E
:101220000C94A80957FD9058440F551F59F05F3F83
:1012300071F04795880F97FB991F61F09F3F79F0F8
:1012400087950895121613061406551FF2CF46957A
:10125000F1DF08C0161617061806991FF1CF8695FC
:101260007105610508940895E894BB2766277727E0
:10127000CB0197F908950E944E090C94ED080E9445
:10128000B40838F00E94BB0820F0952311F00C94AC
:101290009D080C94B10811240C9435090E94120980
:1012A00070F3959FC1F3950F50E0551F629FF001B9
:1012B000729FBB27F00DB11D639FAA27F00DB11DD2
:1012C000AA1F649F6627B00DA11D661F829F22275B
:1012D000B00DA11D621F739FB00DA11D621F839FE2
:1012E000A00D611D221F749F3327A00D611D231FB8
:1012F000849F600D211D822F762F6A2F11249F5706
:1013000050409AF0F1F088234AF0EE0FFF1FBB1F08
:10131000661F771F881F91505040A9F79E3F5105C7
:1013200080F00C949D080C9435095F3FE4F3983EDF
:10133000D4F3869577956795B795F795E7959F5F71
:10134000C1F7FE2B880F911D9695879597F9089503
:101350009F938F937F936F93FF93EF939B01AC01C8
:101360000E943B09EF91FF910E94BC092F913F9190
:101370004F915F910C943B09DF93CF931F930F9391
:10138000FF92EF92DF927B018C01689406C0DA2E07
:10139000EF010E944E09FE01E894A5912591359137
:1013A00045915591A6F3EF010E94C007FE019701F8
:1013B000A801DA9469F7DF90EF90FF900F911F91E9
:1013C000CF91DF910895EE0FFF1F0590F491E02D6E
:1013D0000994F894FFCF9A99993ECDCCCC3DCDCCD1
:1013E000CC3D00000000D5023502620222039302C8
:1013F0007102850200030C0F30333C3FC0C3CCCFD9
:10140000F0F3FCFF5175617369706572696F64690F
:1014100063616C2048656E6F6E206D617000437271
:101420006561746564206279204A4C532032303201
:02143000310089
:107E0000112484B714BE81FFF0D085E080938100F7
:107E100082E08093C00088E18093C10086E0809377
:107E2000C20080E18093C4008EE0C9D0259A86E02C
:107E300020E33CEF91E0309385002093840096BBD3
:107E4000B09BFECF1D9AA8958150A9F7CC24DD24C4
:107E500088248394B5E0AB2EA1E19A2EF3E0BF2EE7
:107E6000A2D0813461F49FD0082FAFD0023811F036
:107E7000013811F484E001C083E08DD089C08234E0
:107E800011F484E103C0853419F485E0A6D080C0E4
:107E9000853579F488D0E82EFF2485D0082F10E0AE
:107EA000102F00270E291F29000F111F8ED06801E7
:107EB0006FC0863521F484E090D080E0DECF843638
:107EC00009F040C070D06FD0082F6DD080E0C81688
:107ED00080E7D80618F4F601B7BEE895C0E0D1E017
:107EE00062D089930C17E1F7F0E0CF16F0E7DF06D8
:107EF00018F0F601B7BEE89568D007B600FCFDCFD4
:107F0000A601A0E0B1E02C9130E011968C91119780
:107F100090E0982F8827822B932B1296FA010C0160
:107F200087BEE89511244E5F5F4FF1E0A038BF0790
:107F300051F7F601A7BEE89507B600FCFDCF97BE46
:107F4000E89526C08437B1F42ED02DD0F82E2BD052
:107F50003CD0F601EF2C8F010F5F1F4F84911BD097
:107F6000EA94F801C1F70894C11CD11CFA94CF0C13
:107F7000D11C0EC0853739F428D08EE10CD085E9AC
:107F80000AD08FE07ACF813511F488E018D01DD067
:107F900080E101D065CF982F8091C00085FFFCCF94
:107FA0009093C60008958091C00087FFFCCF809118
:107FB000C00084FD01C0A8958091C6000895E0E648
:107FC000F0E098E1908380830895EDDF803219F02E
:107FD00088E0F5DFFFCF84E1DECF1F93182FE3DFCA
:107FE0001150E9F7F2DF1F91089580E0E8DFEE27F6
:047FF000FF270994CA
:027FFE00040479
:00000001FF
