:020000040000FA
:100000000C94DD010C9405020C9405020C9405027D
:100010000C9405020C9405020C9405020C94050244
:100020000C9405020C9405020C9405020C94050234
:100030000C9405020C9405020C9405020C94050224
:100040000C9447040C9405020C9415040C94EF03D3
:100050000C9405020C9405020C9405020C94050204
:100060000C9405020C940502000000080002010037
:100070000003040700000000000000000000000072
:100080000000000018181818180018006C6C6C009C
:100090000000000036367F367F3636000C3F683E63
:1000A0000B7E180060660C1830660600386C6C38E1
:1000B0006D663B000C183000000000000C1830305A
:1000C00030180C0030180C0C0C18300000187E3C56
:1000D0007E1800000018187E1818000000000000AC
:1000E000001818300000007E000000000000000032
:1000F0000018180000060C18306000003C666E7E88
:1001000076663C001838181818187E003C66060CF5
:1001100018307E003C66061C06663C000C1C3C6CDD
:100120007E0C0C007E607C0606663C001C30607C09
:1001300066663C007E060C18303030003C66663C3B
:1001400066663C003C66663E060C380000001818E7
:100150000018180000001818001818300C1830602B
:1001600030180C0000007E007E00000030180C06E5
:100170000C1830003C660C18180018003C666E6ABB
:100180006E603C003C66667E666666007C66667CE9
:1001900066667C003C66606060663C00786C666603
:1001A000666C78007E60607C60607E007E60607C53
:1001B000606060003C66606E66663C006666667EF7
:1001C000666666007E18181818187E003E0C0C0C27
:1001D0000C6C3800666C7870786C660060606060EB
:1001E00060607E0063777F6B6B6363006666767E1C
:1001F0006E6666003C66666666663C007C66667C8B
:10020000606060003C6666666A6C36007C66667C90
:100210006C6666003C66603C06663C007E181818FA
:10022000181818006666666666663C00666666664E
:10023000663C180063636B6B7F77630066663C18EF
:100240003C6666006666663C181818007E060C1848
:1002500030607E007C60606060607C000060301810
:100260000C0600003E06060606063E00183C6642E6
:100270000000000000000000000000FF1C36307C81
:1002800030307E0000003C063E663E0060607C66CA
:1002900066667C0000003C6660663C0006063E66C2
:1002A00066663E0000003C667E603C001C30307C90
:1002B0003030300000003E66663E063C60607C6682
:1002C000666666001800381818183C0018003818C0
:1002D000181818706060666C786C6600381818180A
:1002E00018183C000000367F6B6B630000007C66D2
:1002F0006666660000003C6666663C0000007C6640
:10030000667C606000003E66663E060700006C7614
:100310006060600000003E603C067C0030307C3055
:1003200030301C000000666666663E0000006666AF
:10033000663C18000000636B6B7F36000000663C73
:10034000183C660000006666663E063C00007E0CB7
:1003500018307E000C18187018180C0018181800A7
:10036000181818003018180E18183000316B460095
:1003700000000000FFFFFFFFFFFFFFFF0000000085
:10038000250028002B0000000000240027002A0080
:10039000040404040404040402020202020203032B
:1003A0000303030301020408102040800102040833
:1003B0001020010204081020F30711241FBECFEF04
:1003C000D8E0DEBFCDBF11E0A0E0B1E0E4E0F3E1B2
:1003D00002C005900D92A835B107D9F722E0A8E533
:1003E000B1E001C01D92A530B207E1F711E0CDEDFB
:1003F000D1E004C02197FE010E947A09CC3DD107CB
:10040000C9F70E9491040C9480090C94000090E0BC
:10041000FC01EC55FC4F249180579C4FFC018491CA
:10042000882399F090E0880F991FFC01EA57FC4F50
:10043000A591B491FC01E458FC4F859194918FB73C
:10044000F894EC91E22BEC938FBF0895AF92BF929A
:10045000CF92DF92EF92FF920F931F93CF93DF9390
:100460006C017B018B01040F151FEB015E01AE18BF
:10047000BF08C017D10759F06991D601ED91FC91E1
:100480000190F081E02DC6010995892B79F7C5010E
:10049000DF91CF911F910F91FF90EF90DF90CF9060
:1004A000BF90AF900895FC01538D448D252F30E00F
:1004B000842F90E0821B930B541710F0CF96089571
:1004C00001970895FC01918D828D981761F0A28D9E
:1004D000AE0FBF2FB11D5D968C91928D9F5F9F7364
:1004E000928F90E008958FEF9FEF0895FC01918D1A
:1004F000828D981731F0828DE80FF11D858D90E087
:1005000008958FEF9FEF0895FC01918D228D892F23
:1005100090E0805C9F4F821B91098F73992708950B
:1005200081E691E00E94840221E0892B09F420E019
:10053000822F089580E090E0892B29F00E9490029C
:1005400081110C9400000895FC01A48DA80FB92F0F
:10055000B11DA35ABF4F2C91848D90E001968F73EB
:100560009927848FA689B7892C93A089B1898C910A
:10057000837080648C93938D848D981306C0028859
:10058000F389E02D80818F7D80830895EF92FF9223
:100590000F931F93CF93DF93EC0181E0888F9B8DA6
:1005A0008C8D98131AC0E889F989808185FF15C060
:1005B0009FB7F894EE89FF896083E889F989808183
:1005C0008370806480839FBF81E090E0DF91CF9152
:1005D0001F910F91FF90EF900895F62E0B8D10E074
:1005E0000F5F1F4F0F731127E02E8C8D8E110CC0E3
:1005F0000FB607FCFACFE889F989808185FFF5CF2E
:10060000CE010E94A402F1CFEB8DEC0FFD2FF11D66
:10061000E35AFF4FF0829FB7F8940B8FEA89FB896A
:1006200080818062CFCFCF93DF93EC01888D8823C8
:10063000B9F0AA89BB89E889F9898C9185FD03C045
:10064000808186FD0DC00FB607FCF7CF8C9185FF2A
:10065000F2CF808185FFEDCFCE010E94A402E9CFC9
:10066000DF91CF91089590E0FC01E859FF4F24916C
:10067000FC01EC55FC4F3491FC01E057FC4FE49138
:10068000EE23C9F0222339F0233001F1A8F4213000
:1006900019F1223029F1F0E0EE0FFF1FE458FC4F72
:1006A000A591B4918FB7F894EC91611126C0309563
:1006B0003E233C938FBF08952730A9F02830C9F01E
:1006C000243049F7809180008F7D03C080918000A5
:1006D0008F7780938000DFCF84B58F7784BDDBCFA9
:1006E00084B58F7DFBCF8091B0008F778093B00071
:1006F000D2CF8091B0008F7DF9CF3E2BDACF3FB7BC
:10070000F89480915D0190915E01A0915F01B0919C
:10071000600126B5A89B05C02F3F19F00196A11DC9
:10072000B11D3FBFBA2FA92F982F8827BC01CD013B
:10073000620F711D811D911D42E0660F771F881F9A
:10074000991F4A95D1F7089561E0809100020C94B9
:1007500033038EBD00000DB407FEFDCF8EB50895A6
:10076000CF93DF93EC0160E0809100020E9433039D
:100770008D2F0E94A9038C2FDF91CF910C94A90398
:100780001F93CF93DF93162FEA0190680E94B00366
:10079000219720F0812F0E94A903FACFDF91CF91FA
:1007A0001F910C94A403CF93DF93D62FC72F90688B
:1007B0000E94B0038D2F0E94A9038C2F0E94A903D1
:1007C000DF91CF910C94A403CF93C62F90680E9421
:1007D000B0038C2F0E94A903CF910C94A4031F9205
:1007E0000F920FB60F9211242F933F934F935F9365
:1007F0006F937F938F939F93AF93BF93EF93FF93E9
:1008000081E691E00E94A402FF91EF91BF91AF9128
:100810009F918F917F916F915F914F913F912F9118
:100820000F900FBE0F901F9018951F920F920FB64A
:100830000F9211242F938F939F93EF93FF93E09147
:100840007101F09172018081E0917701F09178015E
:1008500082FD1BC0908180917A018F5F8F73209100
:100860007B01821741F0E0917A01F0E0EF59FE4FF1
:10087000958F80937A01FF91EF919F918F912F91A6
:100880000F900FBE0F901F9018958081F4CF1F928C
:100890000F920FB60F9211242F933F938F939F9334
:1008A000AF93BF938091590190915A01A0915B0140
:1008B000B0915C013091580123E0230F2D3758F59A
:1008C0000196A11DB11D2093580180935901909369
:1008D0005A01A0935B01B0935C0180915D019091FE
:1008E0005E01A0915F01B09160010196A11DB11D53
:1008F00080935D0190935E01A0935F01B0936001CE
:10090000BF91AF919F918F913F912F910F900FBE0B
:100910000F901F90189526E8230F0296A11DB11D78
:10092000D2CFCF93DF93CDB7DEB72C970FB6F89425
:10093000DEBF0FBECDBF789484B5826084BD84B520
:10094000816084BD85B5826085BD85B5816085BDCA
:1009500080916E00816080936E0010928100809182
:10096000810082608093810080918100816080930A
:100970008100809180008160809380008091B1002F
:1009800084608093B1008091B00081608093B0005A
:1009900080917A00846080937A0080917A008260EE
:1009A00080937A0080917A00816080937A008091B0
:1009B0007A00806880937A001092C1000E947F03C1
:1009C0004B015C010AEFC02ED12CE12CF12C0E94CE
:1009D0007F03681979098A099B09683E734081057C
:1009E0009105A8F321E0C21AD108E108F10838EE18
:1009F000830E33E0931EA11CB11CC114D104E10489
:100A0000F10429F789E0809300020E940702BFB732
:100A1000B983F8948091FE01811124C0EAE9F3E0E2
:100A20008491EEEAF3E09491E82FF0E0EE0FFF1FDF
:100A3000EA57FC4FA591B491EC91E92321F461E0D0
:100A40008AE00E9433038AE00E9407028CB580612D
:100A50008CBD8CB580648CBD8DE00E9407028BE05C
:100A60000E9407028091FE018F5F8093FE01E98161
:100A7000EFBF8CB58C7F8CBD8DB581608DBD8CB585
:100A80008F7D8CBD8CB5837F8CBD81E08DBD61E099
:100A9000809100020E94330361E089E098E20E94A5
:100AA000E40380E090EB0E94B00320E032E03A8360
:100AB000298380E90E94A90381E00E94A90380E9BB
:100AC0000E94A90381E00E94A9038091FF018F5F2A
:100AD0008093FF0189819A8101979A838983892B69
:100AE00041F70E94A40340E058E260E090E080E01B
:100AF0000E94C00340E058E060E080E098E30E947C
:100B0000C00340E050E460E080E090E40E94C00355
:100B100040E051E060E080E09AE20E94C00340E8DB
:100B200050E060E080E498E20E94C00370E060E082
:100B300084E098E20E94D30370E060E086E098E2EF
:100B40000E94D30360E088E098E20E94E40360E042
:100B50008AE098E20E94E40360E08BE098E20E9461
:100B6000E40360E08CE098E20E94E40370E060E05F
:100B70008EE098E20E94D30370E060E080E198E2AA
:100B80000E94D30370E060E082E198E20E94D30308
:100B900070E060E08EE198E20E94D30360E484E1BB
:100BA00098E20E94E4030CE710E0C12CB2E1DB2ED6
:100BB000F8018491A82FAF70B0E0A65EBE4FFC9004
:100BC000E82FF0E0A4E0F595E795AA95E1F7E65E59
:100BD000FE4F6081C6010E94E4036F2DC60101969D
:100BE0000E94E4030F5F1F4FF2E0CF0ED11CC1142F
:100BF00028E1D206E9F680E091E29A83898360E0F9
:100C000070E889819A810E94D3036FEF7FE7898121
:100C10009A8106960E94D303A981BA811896BA8355
:100C2000A983A115B44259F740E050E160E290E099
:100C300080E00E94C003A12C60E3B62E1A821982C4
:100C400073E0C72ED12CE980FA80F0EFEF2228E480
:100C5000E20EF11C09811A810F70112724E0000FA8
:100C6000111F2A95E1F70A5E1F4FC50190680E9487
:100C7000B0038E2D0E94A90389819A8136E0959553
:100C800087953A95E1F7D601A81BB90BCD01880FDE
:100C9000991F8860B0E18B02C00111248F290E9446
:100CA000A903802F0E94A90389819A81880F991F27
:100CB0008E779927812B0E94A9030E94A403E981C2
:100CC000FA813196FA83E983F4E0AF0EB11C2981F1
:100CD0003A812115314009F0B6CF40E050E460E0A0
:100CE00080E090E40E94C0036FEF73E086E898E232
:100CF0000E94D3038EE490E80E94B003AAE2B1E020
:100D0000BA83A983E981FA818191FA83E9838823EF
:100D100019F00E94A903F6CF0E94A40380E199E88C
:100D20000E94B00323E431E03A832983A981BA8188
:100D30008D91BA83A983882319F00E94A903F6CF65
:100D40000E94A40300EC10E0809104019091050141
:100D5000A0910601B09107018D839E83AF83B88770
:100D600040900102509002026090030270900402D1
:100D70008091000190910101A0910201B0910301C5
:100D800089839A83AB83BC839C01AD01CD01B901FA
:100D90000E9421086B017C0123E333E343E750E425
:100DA0006D817E818F8198850E940D094B015C01C8
:100DB0002D813E814F81588560E070E080E89FE39F
:100DC0000E9420089B01AC01C501B4010E940D09DD
:100DD0004B015C0123E333E343EB5EE3C301B20168
:100DE0000E9421082DEC3CEC4CE45DE30E940D09CF
:100DF00069877A878B879C87A701960160E070E0FE
:100E000080E89FE30E9420089B01AC0169857A85F8
:100E10008B859C850E940D099B01AC01C501B40125
:100E20000E9420084B015C01809204019092050110
:100E3000A0920601B092070120E030E040E85EE3B6
:100E4000C301B2010E9421082B013C0120E030E0E7
:100E500040E85FE3C701B6010E9421089B01AC0195
:100E6000C301B2010E940D0920E030E040E85FE3D9
:100E70000E9420082DEC3CEC4CEC5DE30E940D0937
:100E80006B017C0123E333E343EF5FE36D817E81FC
:100E90008F8198850E940D099B01AC0160E070E094
:100EA00080E89FE30E9420089B01AC01C701B601C6
:100EB0000E940D096B017C01C0920102D0920202D6
:100EC000E0920302F092040225E83BEE41E750E491
:100ED00069817A818B819C810E940D092B013C01E3
:100EE00029813A814B815C8160E070E080E89FE37A
:100EF0000E9420089B01AC01C301B2010E940D09B0
:100F00002B013C012DEC3CEC4CE45EE3C701B60147
:100F10000E940D099B01AC01C301B2010E9421088E
:100F2000609300017093010180930201909303018B
:100F300020E030E043E953E4C501B4010E940D090B
:100F400020E030E040EF51E40E9420080E948D082C
:100F5000862E912C6F70A62EB12C6894B6F8782D41
:100F6000662766277073A62AB72A20E030EA45E292
:100F700055E4C701B6010E940D0920E030E044EDC0
:100F800052E40E9421080E948D0890E1699FB001FF
:100F90001124A62AB72AC5010E94B00380E00E944E
:100FA000A903F82E0E94A40395E0959487949A953E
:100FB000E1F7A6E08A229924B80102C075956795E9
:100FC0008A94E2F76F29C5010E94E403E0E0F0E0B3
:100FD000EF2B09F4B9CE0E949002882309F4B4CE15
:100FE0000E940000B1CEE1E6F1E01382128288EEA9
:100FF00093E0A0E0B0E084839583A683B7838CE080
:1010000091E09183808385EC90E09587848784ECE0
:1010100090E09787868780EC90E0918B808B81ECC5
:1010200090E0938B828B82EC90E0958B848B86ECA6
:1010300090E0978B868B118E128E138E148E0895EE
:101040005058BB27AA270E9438080C94D3080E9446
:10105000C50838F00E94CC0820F039F49F3F19F4FD
:1010600026F40C94C2080EF4E095E7FB0C94BC083F
:10107000E92F0E94E40858F3BA1762077307840740
:10108000950720F079F4A6F50C9406090EF4E09586
:101090000B2EBA2FA02D0B01B90190010C01CA0132
:1010A000A0011124FF27591B99F0593F50F4503EDD
:1010B00068F11A16F040A22F232F342F4427585FCF
:1010C000F3CF469537952795A795F0405395C9F7E7
:1010D0007EF41F16BA0B620B730B840BBAF091509F
:1010E000A1F0FF0FBB1F661F771F881FC2F70EC03E
:1010F000BA0F621F731F841F48F487957795679511
:10110000B795F7959E3F08F0B0CF9395880F08F0FC
:101110009927EE0F9795879508950E94EC0888F01F
:101120009F5798F0B92F9927B751B0F0E1F0660FAB
:10113000771F881F991F1AF0BA95C9F714C0B130EC
:1011400091F00E940609B1E008950C940609672FFA
:10115000782F8827B85F39F0B93FCCF3869577951B
:101160006795B395D9F73EF4909580957095619504
:101170007F4F8F4F9F4F089597F99F6780E870E0EA
:1011800060E008959FEF80EC089500240A941616FD
:10119000170618060906089500240A941216130665
:1011A000140605060895092E0394000C11F48823F3
:1011B00052F0BB0F40F4BF2B11F460FF04C06F5F0F
:1011C0007F4F8F4F9F4F089557FD9058440F551FE5
:1011D00059F05F3F71F04795880F97FB991F61F0B9
:1011E0009F3F79F087950895121613061406551F30
:1011F000F2CF4695F1DF08C0161617061806991F9C
:10120000F1CF86957105610508940895E894BB2790
:1012100066277727CB0197F908950E9420090C943F
:10122000D3080E94C50838F00E94CC0820F095230E
:1012300011F00C94BC080C94C20811240C940709FA
:101240000E94E40870F3959FC1F3950F50E0551F7D
:10125000629FF001729FBB27F00DB11D639FAA270B
:10126000F00DB11DAA1F649F6627B00DA11D661F5A
:10127000829F2227B00DA11D621F739FB00DA11D7B
:10128000621F839FA00D611D221F749F3327A00D35
:10129000611D231F849F600D211D822F762F6A2FD1
:1012A00011249F5750409AF0F1F088234AF0EE0F36
:1012B000FF1FBB1F661F771F881F91505040A9F763
:1012C0009E3F510580F00C94BC080C9407095F3FC9
:1012D000E4F3983ED4F3869577956795B795F7959F
:1012E000E7959F5FC1F7FE2B880F911D9695879517
:1012F00097F90895EE0FFF1F0590F491E02D0994E2
:10130000F894FFCFCDCC4C3ECDCCCC3D00000000BE
:10131000C60226025302130384026202760200030D
:101320000C0F30333C3FC0C3CCCFF0F3FCFF466F13
:101330006C6465642D546F77656C206368616F74AD
:101340006963206D61700043726561746564206239
:0C13500079204A4C53203230323100002A
:107E0000112484B714BE81FFF0D085E080938100F7
:107E100082E08093C00088E18093C10086E0809377
:107E2000C20080E18093C4008EE0C9D0259A86E02C
:107E300020E33CEF91E0309385002093840096BBD3
:107E4000B09BFECF1D9AA8958150A9F7CC24DD24C4
:107E500088248394B5E0AB2EA1E19A2EF3E0BF2EE7
:107E6000A2D0813461F49FD0082FAFD0023811F036
:107E7000013811F484E001C083E08DD089C08234E0
:107E800011F484E103C0853419F485E0A6D080C0E4
:107E9000853579F488D0E82EFF2485D0082F10E0AE
:107EA000102F00270E291F29000F111F8ED06801E7
:107EB0006FC0863521F484E090D080E0DECF843638
:107EC00009F040C070D06FD0082F6DD080E0C81688
:107ED00080E7D80618F4F601B7BEE895C0E0D1E017
:107EE00062D089930C17E1F7F0E0CF16F0E7DF06D8
:107EF00018F0F601B7BEE89568D007B600FCFDCFD4
:107F0000A601A0E0B1E02C9130E011968C91119780
:107F100090E0982F8827822B932B1296FA010C0160
:107F200087BEE89511244E5F5F4FF1E0A038BF0790
:107F300051F7F601A7BEE89507B600FCFDCF97BE46
:107F4000E89526C08437B1F42ED02DD0F82E2BD052
:107F50003CD0F601EF2C8F010F5F1F4F84911BD097
:107F6000EA94F801C1F70894C11CD11CFA94CF0C13
:107F7000D11C0EC0853739F428D08EE10CD085E9AC
:107F80000AD08FE07ACF813511F488E018D01DD067
:107F900080E101D065CF982F8091C00085FFFCCF94
:107FA0009093C60008958091C00087FFFCCF809118
:107FB000C00084FD01C0A8958091C6000895E0E648
:107FC000F0E098E1908380830895EDDF803219F02E
:107FD00088E0F5DFFFCF84E1DECF1F93182FE3DFCA
:107FE0001150E9F7F2DF1F91089580E0E8DFEE27F6
:047FF000FF270994CA
:027FFE00040479
:00000001FF
